:020000040800F2
:1000000068060020B5010008BD010008BF01000816
:10001000C1010008C3010008C5010008000000007C
:10002000000000000000000000000000C701000800
:10003000C901000800000000CB010008CD01000844
:10004000CF010008CF010008CF010008CF01000850
:10005000CF010008CF010008CF010008CF01000840
:10006000CF010008CF010008CF010008CF01000830
:10007000CF010008CF010008CF010008CF01000820
:10008000CF010008CF010008CF010008CF01000810
:10009000CF010008CF010008CF010008CF01000800
:1000A000CF010008CF010008CF010008CF010008F0
:1000B000CF010008CF010008CF010008CF010008E0
:1000C000CF010008CF010008CF010008CF010008D0
:1000D000CF010008CF010008CF010008CF010008C0
:1000E000CF010008CF010008CF01000800F002F89E
:1000F00000F050F814A696E8000CB244B344DA4578
:1001000001D100F047F8BAE80F000FA696E83000DA
:10011000A5EB040504EB0607AAEB0704A7F101070A
:100120004FEA15154FEA3414A4F10104AC4201D38F
:1001300000F030F813F0010F18BFFB1A43F0010371
:1001400000F001F8DBE71847E80A0000080B0000A0
:10015000103A24BF78C878C1FAD8520724BF30C8F3
:1001600030C144BF04680C60704700007047000055
:100170000023002400250026103A28BF78C1FBD8B0
:10018000520728BF30C148BF0B6070471FB51FBD65
:1001900010B510BD00F031F81146FFF7F7FF00F081
:1001A000FBFB00F04FF803B4FFF7F2FF03BC00F0D5
:1001B00057F800000948804709480047FEE7FEE776
:1001C000FEE7FEE7FEE7FEE7FEE7FEE7FEE7FEE707
:1001D00004480549054A064B7047000029060008F7
:1001E000ED0000086800002068060020680200207A
:1001F00068020020704770477047754600F02CF881
:10020000AE4605006946534620F00700854618B003
:1002100020B5FFF7DDFFBDE820404FF000064FF0AE
:1002200000074FF000084FF0000BAC46ACE8C009E7
:10023000ACE8C009ACE8C009ACE8C00921F007018E
:100240008D46704710B50446AFF300802046BDE8E8
:100250001040FFF7A8BF00000048704708000020CA
:1002600001491820ABBEFEE72600020070470000DF
:1002700088B00790069100200590049003900290AA
:10028000019000900698C07800F00F000590069845
:10029000C078C006002806D5FFE706988178059843
:1002A00008430590FFE70698007800284BD0FFE749
:1002B00007980068019000200390FFE70398072843
:1002C0003DD8FFE7039901208840029006980088F6
:1002D0000299084004900498029988422AD1FFE7C5
:1002E00003988000029002990F20884000900099A6
:1002F0000198884301900598029900FA01F101984C
:10030000084301900698C078282806D1FFE7039992
:1003100001208840079948610BE00698C07848287A
:1003200006D1FFE703990120884007990861FFE79C
:10033000FFE7FFE7FFE7039801300390BEE701986E
:1003400007990860FFE706980088B0F5807F50DBCA
:10035000FFE707984068019000200390FFE70398AB
:10036000072842D8FFE7039800F1080101208840E0
:100370000290069800880299084004900498029917
:1003800088422DD1FFE703988000029002990F2048
:10039000884000900099019888430190059802993F
:1003A00000FA01F10198084301900698C0782828C6
:1003B00008D1FFE7039800F1080101208840079960
:1003C0004861FFE70698C078482808D1FFE70398FE
:1003D00000F108010120884007990861FFE7FFE765
:1003E000FFE7039801300390B9E701980799486047
:1003F000FFE708B07047000080B58CB040F60400FD
:100400000121039100F05EF84FF48070ADF82C00EC
:1004100018208DF82F0003208DF82E0040F60000E4
:10042000C4F201000BA9FFF723FF40F20000C2F263
:10043000000000684DF68361C4F21B31A0FB01018E
:100440004FF0FF3000EB9140ADF8220040F2E73072
:10045000ADF8260000200190ADF82800ADF824008A
:1004600042F60040C4F2010002900DF1220100F0BA
:10047000F1F903986021ADF81210ADF81400BDF841
:10048000260000F0C0FA4FF0333243F23333C3F6A4
:10049000D37300F0CFFA00F087FA01990246029870
:1004A000ADF81820ADF81A100DF1120100F020F986
:1004B0000298039900F0ECF80298039900F0FEF816
:1004C0000CB080BD82B001908DF803109DF8030040
:1004D00048B1FFE7019A41F21801C4F2020108682D
:1004E0001043086008E0019A41F21801C4F20201C9
:1004F000086890430860FFE702B0704780B500F0DD
:1005000001F880BD84B000200390029041F2000108
:10051000C4F20201086840F480300860FFE741F24D
:100520000000C4F20200006800F40030029003985A
:1005300001300390FFE702990020019039B9FFE7ED
:100540000398B0F5A06018BF01200190FFE7019863
:10055000C0070028E3D1FFE741F20000C4F2020027
:1005600000688003002803D5FFE70120029002E025
:1005700000200290FFE70298012851D1FFE742F2E4
:100580000001C4F20201086840F010000860086829
:1005900020F007000860086840F00200086041F29F
:1005A0000401C4F20201009108680860086808604C
:1005B000086840F480600860086820F47C100860D7
:1005C000086840F4E810086041F20001C4F202013A
:1005D000086840F080700860FFE741F20000C4F254
:1005E000020000688001002801D4FFE7F5E741F22E
:1005F0000401C4F20201086820F0030008600868E2
:1006000040F002000860FFE741F20400C4F202007B
:10061000006800F00C00082801D0FFE7F4E700E0D4
:10062000FFE704B07047000080B541F20002C4F259
:100630000202106840F00100106041F20401C4F2AF
:10064000020108680023CFF6FF0318400860106815
:100650004FF6FF73CFF6F66318401060106820F471
:1006600080201060086820F4FE00086041F2080154
:10067000C4F202014FF41F000860FFF73FFF4EF67F
:100680000851CEF200014FF00060086080BD00000C
:1006900082B001908DF803109DF8030030B1FFE7A0
:1006A0000199088840F00100088005E00199088858
:1006B00020F001000880FFE702B0704782B001908F
:1006C0008DF803109DF8030040B1FFE70199B1F8E0
:1006D000440040F40040A1F8440007E00199B1F85B
:1006E00044006FF3DF30A1F84400FFE702B0704729
:1006F00084B0039002910020ADF80600ADF804002C
:10070000ADF802000399088C20F0010008840398DA
:10071000008CADF8040003988088ADF802000398BF
:10072000008BADF80600BDF8060020F07000ADF8B3
:100730000600BDF8060020F00300ADF806000298A0
:100740000188BDF806000843ADF80600BDF80400B6
:1007500020F00200ADF8040002980189BDF8040001
:100760000843ADF8040002984188BDF8040008432E
:10077000ADF80400039842F60041C4F2010188423A
:1007800020D0FFE7039843F20041C4F20101884200
:1007900018D0FFE7039844F20001C4F20101884237
:1007A00010D0FFE7039844F20041C4F201018842EF
:1007B00008D0FFE7039844F60001C4F20101884223
:1007C00035D1FFE7BDF8040020F00800ADF80400C3
:1007D00002984189BDF804000843ADF80400BDF853
:1007E000040020F00400ADF8040002988188BDF8F0
:1007F00004000843ADF80400BDF8020020F4807046
:10080000ADF80200BDF8020020F40070ADF802005F
:1008100002988189BDF802000843ADF802000298F1
:10082000C189BDF802000843ADF80200FFE7BDF83A
:10083000020003998880BDF8060003990883029896
:10084000C08803998886BDF804000399088404B021
:100850007047000083B0029001910020ADF80200C3
:1008600002980088ADF80200029842F60041C4F2F6
:100870000101884225D0FFE7029843F20041C4F20B
:10088000010188421DD0FFE70298B0F1804F18D0D7
:10089000FFE7029840F20041C4F20001884210D004
:1008A000FFE7029840F60001C4F20001884208D038
:1008B000FFE7029840F60041C4F2000188420ED1E1
:1008C000FFE7BDF8020020F07000ADF802000198CB
:1008D0004188BDF802000843ADF80200FFE7029826
:1008E00041F20001C4F20001884216D0FFE70298ED
:1008F00041F20041C4F2000188420ED0FFE7BDF88A
:10090000020020F44070ADF802000198C188BDF8E3
:1009100002000843ADF80200FFE7BDF802000299AB
:10092000088001988088029988850198008802993A
:100930000885029842F60041C4F20101884220D0A5
:10094000FFE7029843F20041C4F20101884218D047
:10095000FFE7029844F20001C4F20101884210D07E
:10096000FFE7029844F20041C4F20101884208D036
:10097000FFE7029844F60001C4F20101884205D164
:10098000FFE70198007A02990886FFE702990120A3
:10099000888203B07047000080B582B000200190CB
:1009A000FFF72AFDFFE7FEE74FEA41034FEA535303
:1009B000A3F58063D3F11E03C8BFD3F1210C0CDD76
:1009C0004FF0004242EAC12242EA505232FA03FC9E
:1009D0008CEAE17CACEBE1707047102BC4BF0020C7
:1009E000704703F5787CBCF1FF3F04D06FF0004204
:1009F00082EA2100704770B500F0C6F84992248061
:100A000000207047F2E710F0004248BF4042B0FAC1
:100A100080F310FA03F10AD0C3F11D0303F58063DC
:100A200002EB03524FEA415002EBD12170474FF0E5
:100A30000000704770B5DFF848C11CEA111E1EBFE8
:100A40001CEA13159EEA0C0F95EA0C0F00F06F805C
:100A500081EA03044EEAD47EAE4421EA4C1123EA33
:100A60004C1341F4801143F48013AEF17F7EA1FB5F
:100A7000024CA0FB0365361955EB0C05A1FB034C9A
:100A80004CF10003A0FB021C16EB0C06654153F170
:100A90000003094218BF46F0010613F4007F0BD192
:100AA0004FEA03314FEA053041EA155140EA16504A
:100AB00034036FF003020AE04FEAC3214FEAC52076
:100AC00041EA555140EA5650F4026FF0020202EB3F
:100AD0002E4201EB025585EACE710AD05FEA440C42
:100AE00018BF24F0004450F1000041F1000120EA59
:100AF000D47040F2FE7C624500D270BDA84214BFA3
:100B00004FF080444FF04044002E08BF0024BEF157
:100B1000806FA8BFA1F1C041BDE8704080F2828023
:100B200001F1C04101F000414FF0000070470CEAB4
:100B300013159EEA0C0F18BF95EA0C0F06D081EA38
:100B4000030E4FF000000EF0004170BD00F01CF8E5
:100B50008900013E00F007B800F009B84FEA430CE5
:100B60005FEA5C5C08D081EA030100F05BB84FEA01
:100B7000410C5FEA5C5CF6D102494FF0000070471F
:100B80000000FF070000F87F0EF1020E2EF0030EAA
:100B90005EF8046B364205D4012A43EB030515F5D4
:100BA000001F12D8012841EB010C1CF5001F0CD8C6
:100BB0000ED14FEAD17C0CEB4C0C0CF1020C15F56C
:100BC000001F08BF4CEBD37C04E04FF0080C01E0A1
:100BD0004FEAD37C0CEB4C0526FA05F606F0070627
:100BE000B6F1040C06D20EEB860CBDE870404CF05A
:100BF000010C6047DFE80CF0090B02024FF00041E6
:100C0000A1F500214FF0000070BD194610460128E3
:100C100051EB010418BFD4F5001484BF002001F08B
:100C2000004170BD0808A0F500114FEA310170477E
:100C3000500C0008000000200800000050010008CF
:100C4000580C000808000020600600007001000831
:080C500000A24A0400000000AC
:04000005080000ED02
:00000001FF
