:020000040800F2
:10000000183200206902000871020008730200081B
:10001000750200087702000879020008000000005D
:10002000000000000000000000000000611F000848
:100030007D02000800000000311D0008B12000080A
:10004000830200088302000883020008830200087C
:10005000830200088302000883020008830200086C
:10006000830200088302000883020008830200085C
:10007000830200088302000883020008830200084C
:10008000830200088302000883020008830200083C
:10009000830200088302000883020008830200082C
:1000A000830200088302000883020008830200081C
:1000B000830200088302000883020008830200080C
:1000C00083020008830200088302000883020008FC
:1000D00083020008830200088302000883020008EC
:1000E00083020008830200088302000800F002F87F
:1000F00000F0A6F814A696E8000CB244B344DA4522
:1001000001D100F09DF8BAE80F000FA696E8300084
:10011000A5EB040504EB0607AAEB0704A7F101070A
:100120004FEA15154FEA3414A4F10104AC4201D38F
:1001300000F086F813F0010F18BFFB1A43F001031B
:1001400000F001F8DBE7184784670000A4670000AF
:10015000103A24BF78C878C1FAD8520724BF30C8F3
:1001600030C144BF04680C60704700007047000055
:100170000023002400250026103A28BF78C1FBD8B0
:10018000520728BF30C148BF0B6070476E2900F08E
:10019000E381702900F02783662906F0DB82652958
:1001A00006F0D882672906F0D582612906F0D4824C
:1001B00003681B0A28BF41F08001692900F0908183
:1001C000642900F08D81752900F08A816F2900F083
:1001D000B582782900F0F382E92900F04F82E42902
:1001E00000F04C82F52900F04982EF2900F0B2823C
:1001F000F82900F0F2820368DB0928BF41F0800192
:10020000632901F02580732901F02A80E32901F098
:100210003580F32901F03A80002070471FB501F0C6
:100220008BF804000020002105F0F2FE401C606005
:100230000020002105F0D6FEE0601FBD10B510BD06
:1002400001F04CF8114603B402F018FB03BCFFF7B1
:10025000E5FF02F025FB01F027F903B4FFF7EEFFFD
:1002600003BC01F06FF900000948804709480047C6
:10027000FEE7FEE7FEE7FEE7FEE7FEE7FEE7FEE756
:10028000FEE7FEE704480549054A064B70470000B3
:10029000D1200008ED000008182C002018320020A2
:1002A000182E0020182E00200FB41CB50C0007AA31
:1002B000009007D04142A14202D32044401E01E0F9
:1002C0004FF0FF30074B7B4469460190069800F0E1
:1002D0005CF90021002C01D0009A11701CBC5DF863
:1002E00014FB0000E7020000032A40F2308010F007
:1002F000030C00F0158011F8013BBCF1020F6244C1
:1003000098BF11F801CB00F8013B38BF11F8013B51
:10031000A2F1040298BF00F801CB38BF00F8013BFE
:1003200011F0030300F02E83083AC0F0088051F862
:10033000043B083A51F804CBA0E80810F5E7121D79
:100340005CBF51F8043B40F8043BAFF30080D20798
:1003500024BF11F8013B11F801CB48BF11F8012B64
:1003600024BF00F8013B00F801CB48BF00F8012B87
:10037000704702F0FF0343EA032242EA024200F020
:1003800024B84FF000020429C0F0128010F0030CD2
:1003900000F01B80CCF1040CBCF1020F18BF00F878
:1003A000012BA8BF20F8022BA1EB0C0100F00DB827
:1003B0005FEAC17C24BF00F8012B00F8012B48BF85
:1003C00000F8012B70474FF0000200B51346944629
:1003D0009646203922BFA0E80C50A0E80C50B1F19D
:1003E0002001BFF4F7AF090728BFA0E80C5048BFB1
:1003F0000CC05DF804EB890028BF40F8042B08BF4F
:10040000704748BF20F8022B11F0804F18BF00F84A
:10041000012B704770477047704770B50446856977
:100420000068C10601D5302600E02026C00707D0AD
:1004300070BDD4E9012130469047206A401C2062FB
:100440006D1EF6D570BD70B5044685690078C0078D
:1004500007D170BDD4E9012120209047206A401CBB
:1004600020626D1EF6D570BD09684A0501D540B2FF
:100470007047C905FCD500B2704709684A0501D527
:10048000C0B27047C905FCD580B2704770B50C4644
:100490000546012A05D02878800600D5EA690023A0
:1004A00002E0012305E05B1C934202D2E05C0028DD
:1004B000F9D1A869E618C01AA861286A1844286208
:1004C0002846FFF7AAFF04E0D5E9012114F8010B43
:1004D0009047B442F8D32846FFF7B5FF70BD00003F
:1004E0002DE9F0410646002410687529314616A50D
:1004F00010D0FFF7B9FF002802DA404213A507E049
:1005000031688A0701D512A502E0490704D511A573
:10051000012401E0FFF7B1FF00210A2206F12407C0
:1005200009E0B0FBF2FCB0FBF2F302FB1C00303040
:1005300078541846491C0028F3D123462A463046F1
:10054000BDE8F04100F095BA000000002D00000069
:100550002B0000002000000011680268006A5305AB
:1005600001D508700AE0D30501D5088006E013061E
:1005700003D5C217C1E9000200E0086001207047FE
:1005800001694A1C02610878704700B58FB0CDE957
:1005900001310021059105497944CDE90310114647
:1005A000684600F02BF90FB000BD0000E5FFFFFF2B
:1005B000D1E900239A4202D2531C0B60107070479D
:1005C0002DE9FF5F15468A460446DFF8AC80F84403
:1005D0000027D8E900103E46CDE9001010E03AF8B7
:1005E00016106A4602A800F055FE411C07D021787B
:1005F000890603D5E269391891420DD80744761C63
:100600002078800602D5E069B84205DDAE42E6DB1F
:100610003AF816000028E2D1A069C01BA06120466C
:10062000FFF7FBFED8E90010CDE90010002017E02D
:100630003AF818106A4602A800F02CFEB0F1FF3F0D
:1006400081460BD000250DF1080B05E0D4E901210E
:100650001BF8050090476D1C4D45F7D308F10100CC
:10066000B0428046E4DB206A384420622046FFF72F
:10067000EAFEBDE8FF9F00008A6100002DE9F0411D
:100680008046D21D22F007020025D2E90002F5299A
:1006900015A614D0011E72F1000106DA0023D0EB7A
:1006A000030063EB020211A608E0D8F800108B07E4
:1006B00001D50FA602E0490701D50EA60125114676
:1006C000002408F1240704E000F08EF930323A5596
:1006D000641C50EA0102F7D12B46324621464046BF
:1006E000BDE8F04100F0C5B9000000002D00000099
:1006F0002B0000002000000030B4002100F1240491
:1007000008E002F00705D208303542EA4372DB0800
:100710006554491C52EA0305F3D10468002310A272
:10072000250708D504F020040C4304D0C469012334
:100730000CA2641EC46130BC00F09BB910B5044625
:1007400021461068FFF799FE02462046BDE810409A
:100750000023D1E7D21D22F00701D1E90023CBE726
:100760000000000030000000F0B40D4601880905CB
:1007700002D5214C7C4402E01F4C7C440E34002105
:1007800000F1240608E002F00F071209E75D42EAD3
:1007900003721B097754491C52EA0307F3D102780C
:1007A0000023120704D5702D06D009B1022311349D
:1007B0002246F0BC00F05DB901231034F8E770B5B3
:1007C00004460D4621461068FFF757FE02462946AB
:1007D0002046BDE870400023C6E7D21D22F0070383
:1007E000D3E90023C0E70368126843F020030360E5
:1007F0000823C3610023B7E7EC5F00002DE9F05F39
:10080000894604464FF0000ADFF874B1FB44C0F893
:1008100020A02046E1688847002874D0252806D00B
:10082000D4E901219047206A401C2062F1E70026AC
:100830005F462046E16888472028054607DB312DC2
:1008400005D2781910F8200C08B10643F1E7B0077B
:1008500001D526F00406C4F81CA00027C4F818A08F
:100860002A2D09D0284605F0B5FB38B304EB8708DC
:10087000303DC8F8185019E059F8041B204604EB25
:1008800087029161E1688847012F054618D1E06928
:10089000002820DA26F020061DE0D8F8180000EB2A
:1008A000800005EB40003038C8F818002046E168A9
:1008B0008847054605F08EFB0028EED1012F0AD0AF
:1008C0002E2D08D12046E16888477F1C0546022F5F
:1008D00046F02006C4DBA069002803DA404246F057
:1008E0000106A061F00701D026F010066C2D0BD098
:1008F000682D09D04C2D39D06A2D35D0742D35D0C6
:100900007A2D33D016E038E0E1682F46204688473C
:10091000B842054609D16C2F26D04FF48060E168BB
:10092000064320468847054604E06C2F1AD04FF452
:10093000807006430DB3A5F14100192802D8203577
:1009400046F400664A462946204626604E46FFF792
:100950001DFC80B101280BD0F61D26F0070000F128
:10096000080956E74020E4E78020D8E70020D6E7D2
:1009700006F104094DE7284652E7206ABDE8F09FDA
:100980007C5F000010B5203AC0F00B80B1E8185031
:10099000A0E81850B1E81850A0E81850203ABFF469
:1009A000F5AF5FEA027C24BFB1E81850A0E8185008
:1009B00044BF18C918C0BDE810405FEA827C24BF5C
:1009C00051F8043B40F8043B08BF7047D20728BFEA
:1009D00031F8023B48BF11F8012B28BF20F8023B39
:1009E00048BF00F8012B704730B5B0F10A0271F131
:1009F00000034FEA900E4EEA817EB0EB0E0061EBF1
:100A000091014FEA101E4EEA017E10EB0E0041EB01
:100A100011114FEA102E4EEA016E10EB0E0041EB61
:100A200011214FEA104E4EEA014E10EB0E0041EB41
:100A30001141401841F100014FEAD00040EA4170F5
:100A40004FEAD1014FEA810444EA907410EB80052B
:100A500044EB01046D1944EB0404521BA3414FF015
:100A6000000348BF0A3200D530BD401C41F10001EF
:100A700030BD2DE9F0470D4699469246044600F1F7
:100A800024080168880604D5E06921F0100121607E
:100A900000E00120A84201DD471B00E00027A1691A
:100AA0007A1902EB0900081AA0612078C00602D466
:100AB0002046FFF7B2FC002608E0D4E901211AF82D
:100AC00006009047206A401C761C20624E45F4DBED
:100AD0002078C0060AD52046FFF79FFC06E0D4E93F
:100AE000012130209047206A401C2062381EA7F167
:100AF0000107F4DC07E0D4E9012118F8050090476C
:100B0000206A401C2062281EA5F10105F3DC204666
:100B1000FFF799FC2078000602D50220BDE8F08797
:100B20000120FBE72DE9FF4F0C461E464FF0FF3733
:100B30008BB0D2E90001DDF860800A908A46C1F3EB
:100B40000A5505B93D46002108464FF00000BAF1AC
:100B5000000F00F4400005DA00EB80004FF4400184
:100B600001EA50004FEA9059B9F1010F00DDB94692
:100B70000A9850EA4A000ED044F61050A5F2FF350C
:100B800045432F14B8F1000F1ED07542291E1EDDFB
:100B9000C9F100021CE0B8F1010F4FF0000001D0D4
:100BA000302103E0F24305E02154401CB042FBDB5E
:100BB00030460022002121540B99C1F80880C1E978
:100BC00000200FB0BDE8F08FBD1B6D1CDEE74A466C
:100BD00000DA694206A800F0F5FB06AB93E80700CF
:100BE00003AB83E8070050460A9904F017FE8DE82E
:100BF0000700A0F500501F3800900398002D0ADD73
:100C000042F21F014A460844002303A903906846A4
:100C100005F080F809E0A0F500504A461F3800238F
:100C200003A90390684605F08AF88DE807000004E0
:100C3000000C03D04FF0FF30410800E01046B8F13F
:100C4000000F03D00022009215461EE0751E05D449
:100C5000FFF7CAFE303262556D1EF9D5B346012248
:100C6000084302D000227F1C04E02078302801D104
:100C700000227F1E002A099784D01DE0112D07DA7B
:100C8000FFF7B2FE303262556D1C50EA0102F5D119
:100C9000084302D00098C8B10EE00021681E05E0AC
:100CA000235C625C63542254401E491C8142F7DB82
:100CB000AB46A81B401E0990002004F80B000B98BF
:100CC000099AC0F80880C0E9002B7AE711264FF096
:100CD000000857E72DE9F04F88460446D21D22F060
:100CE000070191B0D1E90001CDE90A0105F05EF9F3
:100CF00002460B98C00F01D02D2007E02068810725
:100D000001D52B2002E0202101EAC000032A09902E
:100D100001D0072A05DB03464146204600F012FBBE
:100D20000BE12078800601D5E06900E00620B8F1EB
:100D3000650F814606D0B8F1660F18D0B8F1670F7D
:100D400070D131E00020B9F1110F009001DB1123C7
:100D500001E009F101030AAA01A90CA8FFF7E2FECC
:100D6000DDE90C70002609F10105834647E001200A
:100D70004B4600904FF000470AAA01A90CA8FFF7C4
:100D8000D1FEDDE90DB00C995D46002610B909F1E0
:100D900001000D18B9EB050003D4C0F1FF3609F1CD
:100DA0000105A5EB09002BE0B9F1010F01DA4FF0C5
:100DB00001090020B9F1110F0090484601DD11230F
:100DC00000E003460AAA01A90CA8FFF7ABFEDDE983
:100DD0000C704D4600268346207800070AD4AB45A8
:100DE00000DA5D4601A8012D04DD411911F8011C4E
:100DF000302907D04F4502DA17F1040F04DA012039
:100E000082460FE06D1EEEE7002F02DCED1B3E4434
:100E100003E0781CA84200DD7D1CB81B00F1010A2C
:100E20004FF000472078000703D4AA4501DB4FF0BC
:100E3000FF3A0021B7F1004F0DF143088DF8431040
:100E400024D002202B23002F01DA7F422D230A21F8
:100E5000021EA0F1010000DC5FB197FBF1FC97FBE3
:100E6000F1F201FB1C7C17460CF1300C08F801CDA7
:100E7000EEE7A8F1010003702188090501D545219D
:100E800000E06521A0F1010800F8011C09980FA9F4
:100E9000A1EB0807FF1D00B10120411901EBEA7029
:100EA000A1693844081A401EA0612078C00602D407
:100EB0002046FFF7B2FA099828B1D4E901219047FA
:100EC000206A401C20622078C00622D52046FFF709
:100ED000A4FA1EE0002E04DBB34502DD01A8805D0C
:100EE00000E03020D4E901219047206A401C2062B4
:100EF000761CAAF101005FEA000A0AD100F01CFA90
:100F0000C0680168405CD4E901219047206A401C18
:100F10002062281EA5F10105DCDC07E0D4E90121EF
:100F200018F8010B9047206A401C2062381EA7F178
:100F30000107F3DC2046FFF786FA032011B041E6F3
:100F40002DE9F04F04460D46D21D22F0070089B06E
:100F5000D0E900974846394605F028F80246F80FD0
:100F600001D02D2307E02068810701D52B2302E063
:100F7000202101EAC0038DF820300BB1012000E0F0
:100F80000020032A824601D0072A04DB2946204696
:100F900000F0D8F93FE12078800601D40D2500E06B
:100FA000E569C7F30A560D2D49DA00214FEA175BB0
:100FB00008464FF00000002F00F4400007DA00EB75
:100FC00080004FF4400100EBD07001EA6000811511
:100FD000012901DD4FF0FF3100224FEA850CBCF101
:100FE000180F06D31346ACF118004FF08052C240E0
:100FF00003E04FF4801323FA0CF30CF10C0CBCF15A
:10100000200F04D3ACF1200C09FA0CF001E007FA30
:101010000CF000294FF0004801DD18B90FE00ED1A7
:1010200040450CD319EB02095F4121B9404502D17B
:101030009F4329EA0209BBEB175F00D0761C20888A
:10104000000502D57B48784402E07A487844193894
:1010500008AA302302F80A30037C0AF10101002EAD
:101060000AF1020A53546A4602DC4FF0300101E0F3
:101070004FF031014FF001088DF8001002D0A6F2B8
:10108000FF3603E059EA470100D06B4E002D02DC29
:101090002178090704D54FF002082E218DF80110A0
:1010A000C44600210BE0C7F303433F01C35C491C66
:1010B0006D1E02F80830052908F1010801DA002D3B
:1010C000F1DC00210CE000EB1973491C1B786D1E4C
:1010D000082902F808304FEA091908F1010801DA75
:1010E000002DF0DC21688B0602D516E0A8F101087E
:1010F000E04505DD02EB080313F8013C302BF5D089
:10110000B8F1000F09DD02EB080313F8013C2E2BA8
:1011100003D1090701D4A8F10108002D05DD3E2106
:1011200002F808106D1E08F10108407C002E02F83C
:10113000080008F1010804DA2D20764202F80800C0
:1011400002E02B2002F808000A214FF47A70864250
:1011500008F101080BDB96FBF0F3303302F808309E
:1011600096FBF0F308F1010800FB136601E0642E22
:101170000CDB642096FBF0F3303302F8083096FB6A
:10118000F0F308F1010800FB136601E00A2E06DB0C
:1011900096FBF1F0303002F8080008F1010896FBE8
:1011A000F1F001FB1060303002F80800A16908F18D
:1011B000010808EB050202EB0A00081AA06120787A
:1011C000C00602D42046FFF728F9216A08AE01EBD9
:1011D0000A00206204E0D4E9012116F8010B9047CF
:1011E000BAF1010AF7D22078C00602D52046FFF7EF
:1011F00014F96E4609E016F8010B3E280FD0D4E929
:1012000001219047206A401C2062B8F10108F2D207
:101210002046FFF718F909B00320BDE8F08F206AD7
:101220002844206203E0D4E90121302090476D1E5C
:10123000EBD3F8E76657000002FCFFFF10B54369E7
:1012400013B1AFF3008001E0FFF720F9012010BDDA
:10125000127800F124010A7000224A700122EDE7A1
:1012600011684FF0FF32E9E710B5436913B1AFF3EE
:10127000008001E0FFF7A4F9012010BD128800F101
:10128000240182840022C2840122EDE711684FF01C
:10129000FF32E9E72DE9F04116460C46054600F01D
:1012A00043F8036893F80101012807D0FF2C12D8F6
:1012B000185D80B101202C70BDE8F081D3F80701E2
:1012C0003246214603F20713C7182846BC46BDE83C
:1012D000F041002360474FF0FF30EDE7754600F026
:1012E000EDF8AE4605006946534620F007008546F6
:1012F00018B020B5FEF7C6FFBDE820404FF000064D
:101300004FF000074FF000084FF0000BAC46ACE880
:10131000C009ACE8C009ACE8C009ACE8C00921F0DC
:1013200007018D467047000010B500F005F8001D5C
:1013300010BD00BFDD4C000010B500F0BFF820303C
:1013400010BD00002DE9F0411F4604460326016848
:10135000072A01F4006004DB08B116A505E016A514
:1013600003E008B115A500E015A521F010002060EC
:10137000A069C01EA0610FB1401EA0612046FFF70A
:101380004CF84FB1D4E9012138469047206A401CFF
:101390002062C01C206206E0206AFAE7D4E901213D
:1013A00015F8010B9047761EF8D22046FFF74BF850
:1013B000BDE8F0814E414E006E616E00494E460020
:1013C000696E66002DE9F047814616468AB03548B9
:1013D00078440DC88DE80D0032487844801C03AC79
:1013E0000DC884E80D0041F69B300844372190FB7E
:1013F000F1F290FBF1F5A5F1800501FB12041B3C15
:1014000002D56442012000E00020DFF898A0804669
:101410000027FA44AAF1BE0A0EE0E0070AD03246DD
:10142000684607EB470101230AEB810104F087FCC2
:101430008DE8070064107F1C002CEED1194F7F440B
:10144000AE3F19E0E80715D007EB04100DF1180ABC
:1014500090E80E008AE80E00C068F04201D19819A9
:1014600008903246012306A903A804F068FC03ABE8
:1014700083E807006D10641C002DE3D14FF00103D9
:1014800032466946B8F1000F03A802D004F042FCCE
:1014900001E004F054FCC9E90001C9F808200AB0D1
:1014A000BDE8F0876C54000010B50446AFF300802F
:1014B0002046BDE81040FEF7D0BE0000004870474F
:1014C000100000204FF0013C50F8042B51F8043B71
:1014D0009A4221D1A2EB0C03934313EACC1317D108
:1014E00050F8042B51F8043B9A4215D1A2EB0C039F
:1014F000934313EACC130BD150F8042B51F8043B5F
:101500009A4209D1A2EB0C03934313EACC13DBD02C
:101510004FF00000704700BFD01A01BAB1FA81F154
:1015200001F0180122FA01F0CB40DBB2C0B2C01AC0
:10153000C1F120012CFA01F3D11A914311EAC31130
:10154000E6D1704701491820ABBEFEE72600020035
:101550007047000080B582B08DF8070045F60000A6
:10156000C4F20000012100F05BFAFFE745F600003D
:10157000C4F200000121C0F2030100F011FA08B921
:10158000FFE7F3E745F60000C4F200004621002221
:1015900000F050FBFFE745F60000C4F20000822196
:1015A000C0F2070100F0FCF908B9FFE7F3E79DF886
:1015B000071045F60000C4F2000000F059FBFFE7F9
:1015C00045F60000C4F200008421C0F2070100F0DB
:1015D000E7F908B9FFE7F3E745F60000C4F20000B9
:1015E000012100F033FA00200090FFE7009848F254
:1015F0009F61C0F20101884205D8FFE7FFE700982C
:1016000001300090F2E702B080BD000080B584B0E8
:101610000020ADF80E00ADF80C0045F60000C4F255
:101620000000012100F0FCF9FFE745F60000C4F2DC
:1016300000000121C0F2030100F0B2F908B9FFE790
:10164000F3E745F60000C4F200004621012200F055
:10165000F1FAFFE745F60000C4F200000221C0F2F3
:10166000030100F09DF908B9FFE7F3E700200290BD
:10167000FFE7029801281CDCFFE7FFE745F60000C2
:10168000C4F200004021C0F2030100F089F908B95A
:10169000FFE7F3E745F60000C4F2000000F0C2FAED
:1016A000029A0DF10E018854FFE702980130029072
:1016B000DFE745F60000C4F20000012100F0C6F9A2
:1016C0009DF80E109DF80F0040EA0120ADF80C00C7
:1016D000BDF80C0004F0E5FE4FF0333243F2333333
:1016E000C3F6F37304F052FD04F0ACFEADF80C0049
:1016F00000200190FFE7019848F29F61C0F20101CC
:10170000884205DCFFE7FFE7019801300190F2E72E
:10171000BDF80C0004B080BD80B50120FFF71AFFB2
:101720000720FFF717FF40F20000C2F20000007828
:10173000FFF710FF80BD000080B582B01020009040
:10174000012100F033FB00984FF40051ADF8041074
:101750008DF8070003208DF8060041F20000C4F266
:10176000010001A900F002F802B080BD88B0079026
:101770000691002005900490039002900190009043
:101780000698C07800F00F0005900698C078C00653
:10179000002806D5FFE7069881780598084305904C
:1017A000FFE70698007800284BD0FFE7079800680D
:1017B000019000200390FFE7039807283DD8FFE73A
:1017C00003990120884002900698008802990840F9
:1017D00004900498029988422AD1FFE70398800078
:1017E000029002990F208840009000990198884348
:1017F00001900598029900FA01F1019808430190BF
:101800000698C078282806D1FFE703990120884070
:10181000079948610BE00698C078482806D1FFE791
:1018200003990120884007990861FFE7FFE7FFE778
:10183000FFE7039801300390BEE70198079908601D
:10184000FFE706980088B0F5807F50DBFFE7079838
:101850004068019000200390FFE70398072842D8D2
:10186000FFE7039800F108010120884002900698E4
:1018700000880299084004900498029988422DD16A
:10188000FFE703988000029002990F2088400090A3
:1018900000990198884301900598029900FA01F196
:1018A0000198084301900698C078282808D1FFE7DE
:1018B000039800F108010120884007994861FFE77B
:1018C0000698C078482808D1FFE7039800F108017E
:1018D0000120884007990861FFE7FFE7FFE70398C9
:1018E00001300390B9E7019807994860FFE708B015
:1018F0007047000082B00190ADF80210BDF8020000
:101900000199486102B0704782B00190ADF80210B1
:10191000BDF802000199086102B0704780B588B037
:101920004FF480000121029100F024FA029909206D
:1019300000F03CFA4FF44060ADF80C001C208DF82C
:101940000F0003208DF80E0040F60040C4F20100A5
:1019500003A9FFF70BFF48F2A060C0F2010004905A
:101960000020ADF814004BF6FF71ADF81610ADF87D
:1019700018004FF48060ADF81A004FF48040ADF8C5
:101980001C0045F60000C4F20000019004A900F01C
:1019900073F80198029900F02DF808B080BD00009E
:1019A00086B00590049100200390029001908DF87C
:1019B00003000598808A02900598008B0190019899
:1019C0000004019002980199084320F07F400390A1
:1019D000039804990840884204D1FFE701208DF85C
:1019E000030003E000208DF80300FFE79DF80300EB
:1019F00006B0704782B001908DF803109DF8030087
:101A000030B1FFE70199088840F00100088005E047
:101A10000199088820F001000880FFE702B07047B4
:101A200082B001908DF803109DF8030030B1FFE7FC
:101A30000199088840F48070088005E001990888C1
:101A400020F480700880FFE702B0704782B00190F8
:101A50008DF803109DF8030030B1FFE70199088865
:101A600040F40070088005E00199088820F40070B7
:101A70000880FFE702B0704780B58CB00B900A91E8
:101A800000200190ADF82600ADF824000420ADF848
:101A9000220041F20020C0F27A0007900B98808863
:101AA000ADF82600BDF8260020F03F00ADF8260076
:101AB00002A800F097F901980499079107994DF64B
:101AC0008362C4F21B32A1FB0221890CADF8241001
:101AD000BDF82420BDF826101143ADF82610BDF83E
:101AE00026100B9A91800B9A118821F00101118028
:101AF000ADF826000A98006848F2A061C0F2010122
:101B000088421ED8FFE707980A9909684900B0FB88
:101B1000F1F0ADF82200BDF82200032804DCFFE755
:101B20000420ADF82200FFE7BDF82210BDF8260022
:101B30000843ADF82600BDF8240001300B99088455
:101B400046E00A98C0884BF6FF7188420AD1FFE749
:101B500007980A99096801EB4101B0FBF1F0ADF873
:101B600022000FE007980A99096819225143B0FB37
:101B7000F1F0ADF82200BDF8220040F48040ADF84D
:101B80002200FFE7BDF82200000538B9FFE7BDF8E5
:101B9000220040F00100ADF82200FFE7BDF822006E
:101BA000BDF82610084340F40040ADF82600BDF80B
:101BB00024004FF49671484344F6BB11C0F20C2147
:101BC000A0FB0101012000EBD1000B990884FFE785
:101BD000BDF826000B9988830B99088840F0010016
:101BE00008800B980088ADF82600BDF826004FF657
:101BF000F5310840ADF826000A99888849890143E3
:101C0000BDF826000843ADF82600BDF826000B9964
:101C100008800A998889098908430B9908810CB0C2
:101C200080BD000081B000900098008AC0B201B071
:101C30007047000082B001908DF803108DF80220EB
:101C40009DF8020038B1FFE79DF8030040F0010065
:101C50008DF8030006E09DF8030000F0FE008DF80B
:101C60000300FFE79DF803000199088202B0704766
:101C700082B001908DF803109DF80300019908824D
:101C800002B0704780B58CB009200121039100F0AB
:101C90008DF80399042000F06DF88020ADF82C0039
:101CA00018208DF82F0003208DF82E0040F60040FC
:101CB000C4F201000BA9FFF759FD4720ADF822003F
:101CC00000200190ADF8240040F2E731ADF8261075
:101CD000ADF8280040F60000C4F2000002900DF1BB
:101CE000220100F01FFB01990298039A6023ADF8CE
:101CF0001230ADF8142040F2DE32ADF81820ADF805
:101D00001A100DF1120100F043FA0298082100F0B8
:101D1000DFFA0298039900F00FFA0298039900F095
:101D200021FA0CB080BD000000000000000000009F
:101D3000EFF30980BFF36F8F0D4B1A6820E9F00FA6
:101D400010602DE908404FF0800080F3118802F008
:101D5000EDFB4FF0000080F31188BDE808401968E2
:101D60000868B0E8F00F80F30988BFF36F8F704701
:101D7000CC02002082B001908DF803109DF8030082
:101D800048B1FFE7019A41F21C01C4F20201086860
:101D90001043086008E0019A41F21C01C4F20201FC
:101DA000086890430860FFE702B0704782B0019076
:101DB0008DF803109DF8030048B1FFE7019A41F246
:101DC0001801C4F2020108681043086008E0019A93
:101DD00041F21801C4F20201086890430860FFE76D
:101DE00002B0704786B005900020049003900290E6
:101DF000019041F20400C4F20200006800F00C00FF
:101E000004900498009040B1FFE7009804280BD09C
:101E1000FFE7009808280ED047E0059941F200201E
:101E2000C0F27A00086047E0059941F20020C0F254
:101E30007A00086040E041F20400C4F20200016848
:101E400001F470110391006800F48030029003994E
:101E5000022000EB91400390029848B9FFE70398F5
:101E600040F60011C0F23D014843059908601BE0AF
:101E700041F20400C4F2020000688003002809D582
:101E8000FFE7039840F60011C0F23D014843059971
:101E9000086008E0039841F20021C0F27A0148434B
:101EA00005990860FFE7FFE706E0059941F2002089
:101EB000C0F27A000860FFE741F20400C4F20200B9
:101EC000016801F0F0010491049909090491049A50
:101ED00046F65C01C0F600018A5C0192059B1A6817
:101EE000DDF804C022FA0CF25A60026802F4E062E3
:101EF0000492049A120A0492049A8A5C0192059B45
:101F00005A68DDF804C022FA0CF29A60026802F402
:101F100060520492049AD20A0492049A895C019154
:101F2000059A5168019BD940D160006800F4404097
:101F300004900498800B0490049946F65800C0F66B
:101F40000000405C01900599C868019AB0FBF2F06E
:101F5000086106B0704700000000000000000000AB
:101F6000074B19680868B0E8F00F80F30988BFF3E1
:101F70006F8F4FF0000080F311884EF00D0E704708
:101F8000CC02002080B500F001F880BD84B00020B4
:101F90000390029041F20001C4F20201086840F48B
:101FA00080300860FFE741F20000C4F202000068E0
:101FB00000F400300290039801300390FFE702998B
:101FC0000020019039B9FFE70398B0F5A06018BF71
:101FD00001200190FFE70198C0070028E3D1FFE747
:101FE00041F20000C4F2020000688003002803D51B
:101FF000FFE70120029002E000200290FFE7029834
:10200000012851D1FFE742F20001C4F20201086841
:1020100040F010000860086820F0070008600868B9
:1020200040F00200086041F20401C4F20201009194
:102030000868086008680860086840F48060086004
:10204000086820F47C100860086840F4E810086014
:1020500041F20001C4F20201086840F0807008609B
:10206000FFE741F20000C4F202000068800100288E
:1020700001D4FFE7F5E741F20401C4F20201086868
:1020800020F003000860086840F002000860FFE7E5
:1020900041F20400C4F20200006800F00C000828BD
:1020A00001D0FFE7F4E700E0FFE704B0704700006D
:1020B00080B54EF21000CEF20000006802F00AFF78
:1020C000012803D0FFE702F0EBFAFFE780BD000034
:1020D00080B541F20002C4F20202106840F0010033
:1020E000106041F20401C4F2020108680023CFF637
:1020F000FF031840086010684FF6FF73CFF6F663D1
:1021000018401060106820F480201060086820F4E7
:10211000FE00086041F20801C4F202014FF41F0002
:102120000860FFF72FFF4EF60851CEF200014FF086
:102130000060086080BD000082B001908DF803103F
:102140009DF8030030B1FFE70199088840F0800056
:10215000088005E00199088820F080000880FFE7EA
:1021600002B0704782B001908DF803109DF8030013
:1021700030B1FFE70199088840F00100088005E0D0
:102180000199088820F001000880FFE702B070473D
:1021900084B0039002910020ADF80600ADF8040071
:1021A000ADF802000399088C20F010000884039811
:1021B000008CADF8040003988088ADF80200039805
:1021C000008BADF80600BDF8060020F4E040ADF845
:1021D0000600BDF8060020F44070ADF80600029835
:1021E0000188BDF8060040EA0120ADF80600BDF800
:1021F000040020F02000ADF8040002980189BDF829
:10220000040040EA0110ADF8040002984188BDF8CE
:10221000040040EA0110ADF80400039842F60041C2
:10222000C4F20101884208D0FFE7039843F200415D
:10223000C4F20101884239D1FFE7BDF8040020F063
:102240008000ADF8040002984189BDF8040040EA1E
:102250000110ADF80400BDF8040020F04000ADF816
:10226000040002988188BDF8040040EA0110ADF82E
:102270000400BDF8020020F48060ADF80200BDF853
:10228000020020F40060ADF8020002988189BDF8D8
:10229000020040EA8100ADF802000298C189BDF851
:1022A000020040EA8100ADF80200FFE7BDF802003D
:1022B00003998880BDF80600039908830298C088B6
:1022C00003990887BDF804000399088404B0704797
:1022D00082B00190ADF802100020ADF80000019826
:1022E000008BADF80000BDF8000020F40060ADF8F0
:1022F0000000BDF80210BDF8000040EA0120ADF872
:102300000000BDF800000199088302B0704700008A
:1023100082B00190ADF80210BDF802000199088763
:1023200002B0704783B0029001910020ADF8020026
:1023300002980088ADF80200029842F60041C4F20B
:102340000101884225D0FFE7029843F20041C4F220
:10235000010188421DD0FFE70298B0F1804F18D0EC
:10236000FFE7029840F20041C4F20001884210D019
:10237000FFE7029840F60001C4F20001884208D04D
:10238000FFE7029840F60041C4F2000188420ED1F6
:10239000FFE7BDF8020020F07000ADF802000198E0
:1023A0004188BDF802000843ADF80200FFE702983B
:1023B00041F20001C4F20001884216D0FFE7029802
:1023C00041F20041C4F2000188420ED0FFE7BDF89F
:1023D000020020F44070ADF802000198C188BDF8F9
:1023E00002000843ADF80200FFE7BDF802000299C1
:1023F0000880019880880299888501980088029950
:102400000885029842F60041C4F20101884220D0BA
:10241000FFE7029843F20041C4F20101884218D05C
:10242000FFE7029844F20001C4F20101884210D093
:10243000FFE7029844F20041C4F20101884208D04B
:10244000FFE7029844F60001C4F20101884205D179
:10245000FFE70198007A02990886FFE702990120B8
:10246000888203B07047000080B58AB044F205004E
:1024700001210491FFF79AFC4FF40070ADF824009D
:1024800003208DF8260018208DF8270040F6000064
:10249000C4F20100019009A90291FFF767F90198C0
:1024A00002994FF48062ADF8242004228DF8272091
:1024B000FFF75CF94FF4165005900020ADF81800B6
:1024C000ADF81A00ADF81C00ADF820000C20ADF8F6
:1024D0001E0043F60000C4F20100039005A900F0BD
:1024E0006BF80398049900F02FF80AB080BD000043
:1024F00080B582B08DF80700FFE743F60000C4F214
:102500000100802100F036F808B9FFE7F5E79DF8F3
:10251000071043F60000C4F2010000F0FBF802B01F
:1025200080BD000080B582B00190FFE7019800787F
:1025300038B1FFE70198411C01910078FFF7D8FFFF
:10254000F4E702B080BD000082B001908DF8031066
:102550009DF8030030B1FFE70199888940F40050ED
:10256000888105E00199888920F400508881FFE77F
:1025700002B0704782B00190ADF8021000208DF8D3
:102580000100BDF80200B0F5007F01D1FFE7FFE7D1
:1025900001980088BDF802100840000420B1FFE750
:1025A00001208DF8010003E000208DF80100FFE715
:1025B0009DF8010002B0704780B58CB00B900A9175
:1025C0000020099008900790069005900A9880894D
:1025D00008B1FFE7FFE70B9805900B98008A099078
:1025E00009984CF6FF71084009900A98C18809982B
:1025F0000843099009980B9908820B9880890990E3
:1026000009984EF6F311084009900A9988880A89BA
:1026100010434989014309980843099009980B9987
:1026200088810B98808A099009984FF6FF410840ED
:1026300009900A98818909980843099009980B998B
:1026400088826846FFF7CEFB059843F60001C4F286
:102650000101884203D1FFE70398089002E0029845
:102660000890FFE70B988089000400280AD5FFE74F
:102670000898192148430A9909684900B0FBF1F00C
:10268000079009E00898192148430A9909688900C8
:10269000B0FBF1F00790FFE7079848F21F51C5F231
:1026A000EB11A0FB01016FF00F0000EA510009904F
:1026B000079A09980009642100FB112006900B98E5
:1026C00080890004002810D5FFE70699322000EB2E
:1026D000C10048F21F51C5F2EB11A0FB0110C0F37D
:1026E00042110998084309900FE00699322000EB47
:1026F000011048F21F51C5F2EB11A0FB0110C0F30D
:102700004311099808430990FFE709980B9908813C
:102710000CB080BD82B00190ADF80210BDF802008F
:102720006FF35F200199888002B0704780B582B056
:10273000019000F05BF958B1FFE700F0A1F838B163
:10274000FFE7019800684FF0FF3102F039FAFFE728
:1027500002B080BD80B582B001900198006801F0A0
:10276000F5FB00200090FFE7009804281AD8FFE747
:1027700001980068009A40F20021C2F2000151F86D
:102780002210884209D1FFE7009A40F20021C2F2EC
:102790000001002041F8220004E0FFE7009801302A
:1027A0000090E1E702B080BD80B584B0019001994E
:1027B000002008600090FFE70098042828D8FFE771
:1027C000009940F20020C2F2000050F82100D0B978
:1027D000FFE7009800EB800140F27000C2F20000B9
:1027E00000EB0111012001F08FFF0146009A40F239
:1027F0000020C2F2000040F82210009950F8210099
:102800000199086004E0FFE7009801300090D3E7E9
:102810000198006850B9FFE700F0E8F830B1FFE731
:10282000012001F05DFF01990860FFE7002003909F
:10283000039880F311880198006818B9FFE7002019
:10284000029002E001200290FFE7029804B080BDF0
:1028500080B582B0019000F0C9F860B1FFE700F0E8
:102860000FF840B1FFE701980068002319461A46A7
:1028700002F046F8FFE702B080BD0000704700009C
:1028800082B0EFF305800190019818B1FFE70120B5
:10289000009002E000200090FFE7009802B070472F
:1028A00080B588B000200590079001F0A9F9FFF7E6
:1028B000DBFDFFF733F8FEF73FFFFFF7E3F9FEF725
:1028C0002BFFFEF7A3FE059A0A2003900221029136
:1028D00001F034FF0299059A0346039840F2182C40
:1028E000C2F2000CCCF8003001F028FF0299059AE2
:1028F0000346039840F21C2CC2F2000CCCF80030C6
:1029000001F01CFF0299059A0346039840F2C42C7B
:10291000C2F2000CCCF8003001F010FF0299059AC9
:102920000346039840F2C82CC2F2000CCCF80030E9
:1029300001F004FF059B40F21421C2F2000108607F
:1029400069464B6001200690086044F2B520C0F64D
:10295000000046F67A01C0F600018022049202F0DF
:1029600061FA049A059B069869464B60086044F238
:102970000940C0F6000046F69D01C0F6000102F0D5
:1029800051FA049A059B069869464B60086044F228
:10299000AD00C0F6000046F6A301C0F6000102F04B
:1029A00041FA049A059B069869464B60086044F218
:1029B0002100C0F6000046F6AE01C0F6000102F0AC
:1029C00031FA049A059B069869464B60086044F208
:1029D0001130C0F6000046F69401C0F6000102F086
:1029E00021FA01F0D7FCFFE7FEE7000080B582B0D6
:1029F00002F070FA022803D1FFE70120019002E003
:102A000000200190FFE7019802B080BD80B588B03A
:102A10000790069142F60840C2F200000068049058
:102A200040F2D420C2F200000068039040F2DC20A3
:102A3000C2F200000068029040F2CC20C2F2000016
:102A40000268002182F85A100068043001F048F949
:102A500008B9FFE700E0FFE70798013028BBFFE770
:102A6000069810B3FFE7FFE742F6E031C2F200013B
:102A700048680190019A40F2CC20C2F2000003683D
:102A80009A60019A92680368DA6002680432019BD6
:102A90009B685A6002680432019B9A600068416139
:102AA000086801300860FFE735E00498079908449A
:102AB0000590059840F2CC21C2F2000109684860F7
:102AC0000598049988420AD2FFE7029840F2CC2187
:102AD000C2F200010968043101F078F91AE00398A4
:102AE00040F2CC21C2F200010968043101F06EF914
:102AF000059842F6AC31C2F200010968884207D25B
:102B0000FFE7059842F6AC31C2F20001086000E030
:102B1000FFE7FFE7FFE708B080BD000080B582B0A7
:102B2000019001F089F942F24471C2F20001086893
:102B30000130086040F2CC20C2F20000006898B971
:102B4000FFE7019840F2CC21C2F20001086042F296
:102B50004470C2F200000068012803D1FFE700F0D2
:102B6000E5FB00E0FFE71CE042F6D430C2F20000D3
:102B70000068A0B9FFE740F2CC20C2F20000006874
:102B8000C06A0199C96A884207D8FFE7019840F2F4
:102B9000CC21C2F20001086000E0FFE700E0FFE79F
:102BA000FFE742F25070C2F200000168013101609B
:102BB000006801994864FFE7FFE70198C06A42F2A4
:102BC0005471C2F200010968884208D9FFE70198F0
:102BD000C06A42F25471C2F200010860FFE7FFE7E9
:102BE000FFE70198C06A00EB800040F2E421C2F2E6
:102BF000000101EB8000406800900098019A90600D
:102C000000988068019AD06001980430009A926818
:102C1000506001980430009A9060019AD06A00EBED
:102C2000800001EB800050610198C06A00EB8002D7
:102C300051F82200013041F82200FFE7FFE701F0E0
:102C400013F942F6D430C2F200000068D8B1FFE7B1
:102C5000FFE740F2CC20C2F200000068C06A019990
:102C6000C96A88420CD2FFE74EF60451CEF2000149
:102C70004FF080500860BFF34F8FBFF36F8F00E0BD
:102C8000FFE7FFE700E0FFE702B080BD80B584B05A
:102C900001F0D2F842F60C40C2F20000006878BBA6
:102CA000FFE742F65030C2F20000029001F06EF8E9
:102CB00042F66430C2F20000039001F067F8029916
:102CC000039840F2D022C2F20002116040F2E021EB
:102CD000C2F20001086069460020086040F220222C
:102CE000C2F2000240F27023C2F20003052010215C
:102CF00001F068FD42F60C41C2F20001086000E0FC
:102D0000FFE701F0B1F804B080BD000080B582B0EB
:102D1000FFE742F24870C2F20000006808B3FFE724
:102D200001F08AF842F6F430C2F20000C068C068D0
:102D300001900198043000F0D3FF42F24471C2F2D6
:102D4000000108680138086042F24871C2F20001CF
:102D500008680138086001F087F8019800F074F9FC
:102D6000D7E702B080BD000080B582B0019000912D
:102D70000198006CB8B1FFE70199C8680A6C10446B
:102D8000C86001988168C068884204D3FFE7019950
:102D90000868C86000E0FFE70098019AD168126CEB
:102DA000FDF7A2FAFFE702B080BD000080B586B053
:102DB000059004910392002002900598806B019089
:102DC0000598006C78B9FFE70598006848B9FFE7F7
:102DD0000598806802F0D4F9029005990020886077
:102DE00000E0FFE741E00398B8B9FFE7059A0499CE
:102DF0005068126CFDF778FA059948680A6C10441F
:102E00004860059948688968884204D3FFE70599B6
:102E10000868486000E0FFE726E0059A0499D0685A
:102E2000126CFDF761FA0599C8680A6C801AC860CF
:102E300005980168C068884206D2FFE7059988684E
:102E40000A6C801AC86000E0FFE70398022809D1E5
:102E5000FFE7019820B1FFE701980138019000E0F9
:102E6000FFE700E0FFE7FFE7FFE701980130059982
:102E70008863029806B080BD80B590B001200F90A5
:102E8000002009900890FFE708980F2813DCFFE75F
:102E9000089A46F6BA00C0F60000815C0AA8815480
:102EA0000899405C08B9FFE705E0FFE7FFE70898ED
:102EB00001300890E8E700200E90FFE70E98002808
:102EC0003BDCFFE743F29910C0F6000009900020B8
:102ED00004900790069007A806A905AA00F024FF11
:102EE000049B0998059ADDF818C0DDF81CE06946D6
:102EF000C1F808E0C1F804C00B600AA901F0BCFFEA
:102F000001460E9A42F6A430C2F2000040F82210A8
:102F10000E9950F8210018B1FFE701200F9002E050
:102F200000200F90FFE70F9808B9FFE705E0FFE7E3
:102F3000FFE70E9801300E90C0E70F9810B080BDEB
:102F400070B58AB0DDF844C0DDF840C0DDF83CC0A3
:102F5000DDF838C00990089107920693109828B3BD
:102F6000FFE70F9810B3FFE71098059005985C21D4
:102F7000FDF707FA0F98059908630599022081F873
:102F8000590009980899079A069BDDF838C0119CEA
:102F9000059DEE460026CEF80C60CEF80850CEF81F
:102FA0000440CEF800C000F04DF902E0002005908A
:102FB000FFE705980AB070BD70B58AB0DDF83CC077
:102FC000DDF838C0099008910792069307988000B1
:102FD00000F000FD04900498A0B1FFE75C2000F031
:102FE000F9FC0590059840B1FFE705985C21FDF7D5
:102FF000C8F904980599086303E0049800F048FFB5
:10300000FFE702E000200590FFE70598C0B1FFE769
:103010000598002680F8596009980899079A069B38
:10302000DDF838C00F9C059DEE46CEF80C60CEF85A
:103030000850CEF80440CEF800C000F003F9FFE7D6
:1030400005980AB070BD000080B582B0019001986B
:1030500090F8590040B9FFE70198006B00F018FFA5
:10306000019800F015FF0BE0019890F85900012835
:1030700004D1FFE7019800F00BFF00E0FFE7FFE756
:1030800002B080BD82B001900198406A38B1FFE77C
:103090000198006B0068C0F13800009002E0002049
:1030A0000090FFE7009802B07047000082B00190E6
:1030B00040F2D020C2F2000000680068B0FA80F050
:1030C0004009019908600198006848B9FFE740F29B
:1030D000D020C2F200000068C0680068009002E0E2
:1030E00000200090FFE7009802B0704784B04FF4D2
:1030F0000050009040F24470C2F2000002909DF82F
:103100000800400788B1FFE7029807300290029854
:1031100020F007000290029A40F24471C2F20001CE
:103120000098891A08440090FFE7029942F6D830C7
:10313000C2F200000160002141600298009A104430
:103140000190019808380190019820F00700019043
:10315000019A40F2D820C2F2000002600268516079
:1031600002681160029903910199039A891A5160CA
:103170000068039908600398406842F6A831C2F2DB
:10318000000108600398406842F6A031C2F20001D5
:10319000086004B07047000080B582B00190FFE77E
:1031A000FFF7B4FD40F2E420C2F2000000680228FC
:1031B0000CD3FFE74EF60451CEF200014FF08050E1
:1031C0000860BFF34F8FBFF36F8F00E0FFE7E7E7C3
:1031D00080B582B00190019868B1FFE701980023A3
:1031E0008360019803600198C360019819461A46EC
:1031F00001F086FB00E0FFE702B080BD80B584B03F
:10320000DDF818C00390029101928DF80330029806
:1032100018B9FFE70698006003E001980699086076
:10322000FFE703980699C863029806990864069810
:10323000012101F0FDFA9DF80300069981F84C0088
:1032400004B080BD80B586B0DDF82CC0DDF828C0A4
:10325000DDF824C0DDF820C00590049103920293AC
:103260000A98006B03998900A522FDF782F80A9855
:10327000006B039900EB810004380190019820F065
:10328000070001900498F8B1FFE700200090FFE7E5
:1032900000980F2813D8FFE70498009A805C0A99D9
:1032A000114481F8340004980099405C08B9FFE7A4
:1032B00005E0FFE7FFE7009801300090E8E70A9992
:1032C000002081F8430000E0FFE70898382803D386
:1032D000FFE73720089000E0FFE708980A99C862E6
:1032E00008980A99C8640A98043000F067FD0A98A3
:1032F000183000F063FD0A9800610898C0F13800AA
:103300000A9988610A98406201980599029A00F02A
:103310004FFC0A990860099820B1FFE70A980999BB
:10332000086000E0FFE706B080BD000080B584B013
:1033300000200390FFE70398372810D8FFE7039891
:1033400000EB800140F2E420C2F2000000EB8100BB
:1033500000F01CFDFFE7039801300390EBE742F615
:103360007830C2F20000019000F010FD42F68C307F
:10337000C2F20000029000F009FD42F6C030C2F235
:10338000000000F003FD42F6F430C2F2000000F04D
:10339000FDFC42F6E030C2F2000000F0F7FC0199BB
:1033A000029840F2D422C2F20002116040F2DC2105
:1033B000C2F20001086004B080BD000083B002903A
:1033C00042F6D830C2F200000190FFE70198006891
:1033D0000299884205D2FFE7FFE701980068019053
:1033E000F4E7019842F6D831C2F20001884201D0D8
:1033F000FFE7FFE7019800900098019949680844A9
:103400000299884209D1FFE7029842680199486809
:10341000104448600198029000E0FFE70298009095
:10342000009802994968084401990968884220D1A6
:10343000FFE70198006840F2D821C2F20001096854
:1034400088420DD0FFE701980068426802994868F9
:10345000104448600198006800680299086007E01D
:1034600040F2D820C2F20000006802990860FFE72D
:1034700004E00198006802990860FFE7019802994A
:10348000884204D0FFE702980199086000E0FFE756
:1034900003B0704780B586B0059004910392029303
:1034A00000200190049805994860059800610498EF
:1034B0000399884216D8FFE703980299401A0599A4
:1034C0008969884203D3FFE70120019009E040F2B7
:1034D000E020C2F2000000680599043100F076FC9B
:1034E000FFE717E003980299884208D2FFE70498A3
:1034F0000299884203D3FFE70120019009E040F2DE
:10350000D020C2F2000000680599043100F05EFC92
:10351000FFE7FFE7019806B080BD000080B582B0EC
:10352000019000F089FC0198806B18B9FFE7012039
:10353000009002E000200090FFE700F095FC00986A
:1035400002B080BD80B582B0019000F075FC01989A
:10355000806B0199C96B884203D1FFE7012000907D
:1035600002E000200090FFE700F07EFC009802B02F
:1035700080BD000006480068006880F3088862B6D5
:1035800061B6BFF34F8FBFF36F8F00DF00BF000046
:1035900008ED00E080B584B00390029140F2D020A5
:1035A000C2F200000068C068C06801900198043051
:1035B00000F096FB019890F828004007002806D5F7
:1035C000FFE701980399029A00F004F907E00199D6
:1035D00091F8280000F0FE0081F82800FFE701982C
:1035E000016A884704B080BD80B58AB00020099088
:1035F000089007900690FFE742F60C40C2F20000E8
:10360000006806A9002201F031FA002800F091803C
:10361000FFE70698B0F1FF3F09DCFFE706A804309A
:10362000029002990A6848688968904700E0FFE7BD
:103630000698002800F17C80FFE70898059005981F
:10364000406928B1FFE70598043000F049FB00E02D
:10365000FFE704A800F0F6F8039006980138014649
:103660000191082862D80199DFE801F00505323A96
:103670004C0505323A00059991F8280040F0010008
:1036800081F828000598079B81691944039AFFF780
:1036900001FFD8B1FFE7059890F8280040070028FF
:1036A00008D5FFE70598079982691144039A00F04D
:1036B00091F807E0059991F8280000F0FE0081F8E4
:1036C0002800FFE70598016A884700E0FFE72EE041
:1036D000059991F8280000F0FE0081F8280026E006
:1036E000059991F8280040F0010081F8280007981A
:1036F000059988610598039B816919441A46FFF76B
:10370000C9FE14E0059890F828008007002804D42A
:10371000FFE7059800F0BCFB07E0059991F8280049
:1037200000F0FE0081F82800FFE700E0FFE7FFE778
:1037300062E70AB080BD000080B584B003900291BA
:1037400000F0ECFE684600F07DF801900098D8BBD0
:10375000FFE7029860B9FFE703980199884207D80C
:10376000FFE701F0FFFE03980199FFF713FF2AE03E
:10377000029858B1FFE740F2E020C2F20000006872
:103780000068B0FA80F040090290FFE742F60C4072
:10379000C2F2000000680399019A891A029A00F0A7
:1037A000E7FB01F0DFFE60B9FFE74EF60451CEF211
:1037B00000014FF080500860BFF34F8FBFF36F8F51
:1037C00000E0FFE7FFE702E001F0CCFEFFE704B016
:1037D00080BD000080B584B0039002910192FFE7A4
:1037E0000398029B81691944019AFFF753FE48B17F
:1037F000FFE7039881690298084402900398016AE0
:103800008847EDE704B080BD40F2D420C2F200004A
:103810000068006840B9FFE742F6AC31C2F200012F
:103820004FF0FF3008600CE040F2D420C2F20000FC
:103830000068C068006842F6AC31C2F2000108605E
:10384000FFE7704780B582B0019001F05FFB009008
:10385000009840F2C021C2F200010968884206D2F5
:10386000FFE700F011F801990120086003E00199D9
:1038700000200860FFE7009840F2C021C2F200017A
:103880000860009802B080BD80B582B0FFE740F2CA
:10389000D020C2F200000068006870B1FFE740F27B
:1038A000D020C2F200000068C06800680190019852
:1038B0004FF0FF31FFF76EFEE9E740F2D022C2F28F
:1038C00000021068009040F2E021C2F20001086896
:1038D00010600098086002B080BD000082B0002037
:1038E00000904FF0800080F31188BFF36F8FBFF31B
:1038F0004F8F0190FFE7009808B9FFE7FBE702B0A0
:103900007047000080B584B00390FFE701A8FFF77F
:10391000CDFB029002980199FFF70EFFFFF764FEBE
:10392000F4E7000080B582B0019000F085FA0198BC
:1039300090F845008DF80300FFE79DF9030001288A
:1039400016DBFFE70198406A58B1FFE70198243081
:1039500001F03EFD18B1FFE700F0A0FB00E0FFE73B
:1039600000E005E09DF8030001388DF80300E4E76E
:103970000199FF2081F8450000F076FA00F05CFA2A
:10398000019890F844008DF80200FFE79DF90200CD
:10399000012816DBFFE70198006980B1FFE7019875
:1039A000103001F015FD18B1FFE700F077FB00E0E3
:1039B000FFE79DF8020001388DF8020000E000E00A
:1039C000E4E70199FF2081F8440000F04DFA02B0CD
:1039D00080BD000080B588B0079000200390079854
:1039E00040B3FFE7079810F1090F1FD8FFE70798CA
:1039F000083007909DF81C004007A8B1FFE7079822
:103A000000F00700C0F10800029007980299C9432E
:103A1000884205D8FFE7029907980844079002E01A
:103A200000200790FFE700E0FFE702E0002007909A
:103A3000FFE700E0FFE700F071FD40F2D820C2F29E
:103A40000000006818B9FFE7FFF750FB00E0FFE750
:103A50009DF81F000006002800F19180FFE70798FD
:103A6000002800F08A80FFE7079842F6A031C2F2F2
:103A700000010968884200F28080FFE742F6D830F2
:103A8000C2F20000059000680690FFE706984168C2
:103A9000079A00209142019007D2FFE7069800683C
:103AA000002818BF01200190FFE70198C00730B13E
:103AB000FFE706980590069800680690E6E70698E6
:103AC00040F2D821C2F200010968884253D0FFE7D2
:103AD000059800680830039006980068059908600A
:103AE000069840680799401A112815D3FFE70698F1
:103AF000079908440490069840680799401A049969
:103B0000486007980699486005980068049908601D
:103B100004980599086000E0FFE70698426842F6BD
:103B2000A030C2F200000168891A0160006842F604
:103B3000A831C2F20001096888420BD2FFE742F6C1
:103B4000A030C2F20000006842F6A831C2F20001C3
:103B5000086000E0FFE70699486840F000404860D0
:103B600006990020086042F6B431C2F200010868EC
:103B70000130086000E0FFE700E0FFE700E0FFE75A
:103B800001F0F0FC039808B080BD000081B040F265
:103B9000CC20C2F2000000680090009828B1FFE736
:103BA0000099086D01300865FFE7009801B0704783
:103BB00083B0029001910092029804380290029919
:103BC0004FF080700860029804380290019820F04D
:103BD000010002990860029804380290029943F6A5
:103BE000DD00C0F6000008600298143802900098CA
:103BF00002990860029820380290029803B070473A
:103C000081B041F20001C4F20201086840F4803042
:103C10000860FFE741F20000C4F202000068800380
:103C2000002801D4FFE7F5E741F20401C4F20201E4
:103C3000086820F003000860086840F00100086090
:103C4000FFE741F20400C4F20200006800F00C003B
:103C5000042801D0FFE7F4E741F20001C4F20201B9
:103C6000086840F080700860FFE741F20000C4F28D
:103C7000020000688001002801D4FFE7F5E741F267
:103C80000401C4F202010091086820F47C1008606D
:103C9000086840F4E8100860086820F00300086035
:103CA000086840F002000860FFE741F20400C4F237
:103CB0000200006800F00C00082801D0FFE7F4E7DC
:103CC00041F20401C4F20201086843F6F072904325
:103CD0000860086840F48060086001B07047000028
:103CE00082B0019001980069009001984168806855
:103CF000886001994868896848600098406801991F
:103D0000884205D1FFE7019880680099486000E08B
:103D1000FFE70199002008610099086801380860F0
:103D20000098006802B0704783B002900191009241
:103D3000029942F65810C2F200000860019942F25E
:103D40005870C2F20000086000998020086003B03B
:103D50007047000083B0029001910092029942F6F0
:103D6000F420C2F200000860019942F6B410C2F2D9
:103D70000000086000995020086003B07047000000
:103D800082B00190009102B07047000081B00090B5
:103D9000009901F10800486000994FF0FF308860F9
:103DA000009901F10800C860009901F1080008615C
:103DB00000990020086001B07047000081B00090B9
:103DC00000990020086101B07047000084B00390A2
:103DD00002910298006800900098013020B9FFE736
:103DE00003980069019010E0039808300190FFE704
:103DF0000198406800680099884205D8FFE7FFE70E
:103E0000019840680190F3E7FFE701984068029944
:103E10004860029841688860019802998860029819
:103E20000199486003980299086103990868013074
:103E3000086004B07047000081B04FF0800080F34C
:103E40001188BFF36F8FBFF34F8F009040F20C00CB
:103E5000C2F200000168013101600068012801D14F
:103E6000FFE7FFE701B0704781B040F20C00C2F2FB
:103E70000000016801390160006830B9FFE70020E7
:103E80000090009880F31188FFE701B070470000B0
:103E900080B584B0039003980290039888B3FFE73D
:103EA000029808380290029801900198C179002088
:103EB000B0EBD11F23D0FFE701980068E8B9FFE716
:103EC0000199486820F00040486000F027FB019805
:103ED000426842F6A031C2F200010868104408604E
:103EE0000198FFF76BFA42F6B831C2F20001086898
:103EF0000130086001F036FB00E0FFE700E0FFE77B
:103F0000FFE704B080BD00004EF21001CEF20001C8
:103F1000002008604EF21802CEF20002106040F25B
:103F20000800C2F20000006844F6D352C1F26202F7
:103F3000A0FB02024FF0FF3000EB92104EF2140291
:103F4000CEF20002106007200860704780B582B092
:103F5000019001980090009890F8460020B9FFE782
:103F60000098FFF795FF00E0FFE702B080BD00007A
:103F700080B584B003900291019203980090FFF7FE
:103F80005BFF009890F94400013028B9FFE70099E1
:103F9000002081F84400FFE7009890F945000130C7
:103FA00028B9FFE70099002081F84500FFE7FFF7F7
:103FB0005BFF0098806B38B9FFE7009824300299C6
:103FC000019A00F0A9F800E0FFE70098FFF7AAFCCB
:103FD00004B080BD80B582B00190002000900198AF
:103FE00050B1FFE700F09AFA01980021FEF70EFDAC
:103FF00001F0B8FA009000E0FFE7009860B9FFE731
:104000004EF60451CEF200014FF080500860BFF32D
:104010004F8FBFF36F8F00E0FFE702B080BD00005D
:1040200080B582B00190FFE740F21420C2F2000098
:1040300000680DF103014FF0FF3200F017FDB8B139
:10404000FFE79DF8030048B1FFE741F20000C4F22A
:1040500001004FF40051FDF757FC08E041F2000069
:10406000C4F201004FF40051FDF744FCFFE7FFE705
:104070006420FFF7AFFFD7E781B0009042F6B03081
:10408000C2F2000000680099086042F60840C2F2DF
:10409000000000680099486001B0704742F6144182
:1040A000C2F20001012008607047000080B582B0B4
:1040B0000190FFE740F2C420C2F2000000680DF159
:1040C00002014FF0FF3200F0D1FC68B1FFE7BDF80C
:1040D000020000EB8000400081B240F60000C4F214
:1040E0000000FEF715F9FFE76420FFF773FFE1E733
:1040F00080B582B001900091019840F2CC21C2F2CB
:10410000000109681831FFF761FE00980121FEF7F0
:104110007DFC02B080BD000080B584B003900291A8
:104120000192FFE7039840680090009840F2CC218C
:10413000C2F200010A68D061009880680A681062C3
:1041400008681830009A9268506008681830009A21
:1041500090600398096888620399086801300860D4
:10416000FFE7019820B1FFE74FF0FF300290FFE733
:1041700002980199FEF74AFC04B080BD80B588B072
:104180000790069107980590012002900798002853
:1041900000F08D80FFE70598C06C0699884203D235
:1041A000FFE70698039003E00598C06C0390FFE7D3
:1041B0000598C06A0399884277D0FFE70598006D9B
:1041C000012870D1FFE70598C06A0490039805990B
:1041D000C8620598C07E0006002806D4FFE7039851
:1041E000C0F138000599886100E0FFE70598406953
:1041F000049901EB810240F2E421C2F2000101EBDB
:10420000820188424DD1FFE705980430FFF768FD31
:1042100008B9FFE700E0FFE7FFE7FFE70598C06A9E
:1042200042F25471C2F200010968884208D9FFE7DE
:104230000598C06A42F25471C2F200010860FFE7BB
:10424000FFE7FFE70598C06A00EB800040F2E42139
:10425000C2F2000101EB8000406801900198059ACC
:10426000906001988068059AD06005980430019AA2
:104270009268506005980430019A9060059AD06A5F
:1042800000EB800001EB800050610598C06A00EBF4
:10429000800251F82200013041F82200FFE7FFE7D9
:1042A00000E0FFE700E0FFE700E0FFE700E0FFE7F6
:1042B00008B080BD80B586B005900020ADF8120032
:1042C000FFE7FDF7A3F9ADF81200BDF812000128D1
:1042D0001ADBFFE740F21820C2F2000000680DF17F
:1042E000120101914FF0FF3202920023039300F07C
:1042F00007FB0199029A039B40F21C20C2F20000C6
:10430000006800F0FDFAFFE76420FFF763FED8E7DE
:1043100080B592B01190FFE740F21C20C2F200007D
:1043200000680DF142014FF0FF3200F09FFB68B3CF
:10433000FFE740F2C820C2F20000006810A94FF069
:10434000FF3200F093FB08B3FFE7BDF8423046F6BA
:104350008502C0F600020DF10E000290322101919B
:10436000FBF7A2FF0298FEF7DDF801990298BDF86D
:10437000402002EB8202530046F66C02C0F60002B7
:10438000FBF792FF0298FEF7CDF8FFE76420FFF7F6
:1043900021FEC1E780B582B0FEF76EFD0090009867
:1043A000012804D1FFE701F0FDF9009000E0FFE7EC
:1043B000009801281FD1FFE74FF0800080F311889B
:1043C000BFF36F8FBFF34F8F019042F6AC31C2F253
:1043D00000014FF0FF30086042F6D431C2F2000114
:1043E0000120086042F60841C2F200010020086086
:1043F00000F02AF900E0FFE746F6C800C0F600002A
:10440000006802B080BD000080B588B00790002031
:104410008DF81900ADF81600FFE740F21820C2F23F
:10442000000000680DF11A014FF0FF3200F01EFB92
:10443000002872D0FFE7BDF81A00B0F57A7F27DBBD
:10444000FFE7BDF81A0044F62061884220DCFFE750
:10445000BDF81A00A0F57A705921484302F021F8FE
:104460000022049248F60063CCF2D20301F08EFEE3
:10447000049A4CF20003C4F2580301F0DFFD01F08E
:10448000E1FF01460498ADF816108DF819001CE004
:10449000BDF81A0044F62161884207DBFFE70020DF
:1044A000ADF8160001208DF819000DE0BDF81A00D6
:1044B000B0F57A7F07DAFFE76420ADF81600002038
:1044C0008DF81900FFE7FFE7FFE740F21420C2F282
:1044D000000000680DF119014FF0FF320292002335
:1044E000039300F00DFA029A039B40F2C420C2F23B
:1044F000000000680DF11601019100F001FA019928
:10450000029A039B40F2C820C2F20000006800F04B
:10451000F7F96420FFF75EFDFFE77EE742F24C719A
:10452000C2F20001086801300860704780B586B0AB
:1045300042F24C70C2F20000006838B1FFE742F668
:104540001441C2F20001012008607BE042F61441F0
:10455000C2F2000100200860FFE740F2CC20C2F266
:1045600000000068006B05904FF0A530049005989E
:104570000068B0F1A53F12D1FFE705984068B0F19F
:10458000A53F0CD1FFE705988068B0F1A53F06D1A3
:10459000FFE70598C068B0F1A53F0CD0FFE740F2F7
:1045A000CC20C2F200000168343103910068039905
:1045B000FFF7E6FBFFE7FFE7FFE742F25470C2F2C6
:1045C000000000680290FFE7029800EB800140F2D3
:1045D000E420C2F2000050F8210020B9FFE7029861
:1045E00001380290F0E7FFE7029800EB800140F20B
:1045F000E420C2F2000000EB8100019001994868BC
:1046000040684860019948680831884204D1FFE752
:104610000199C8684860FFE701984068C06840F2A7
:10462000CC21C2F200010860FFE7029842F2547107
:10463000C2F200010860FFE740F2CC20C2F20000A5
:104640000068FFE706B080BD80B582B04EF6085026
:10465000CEF20000006801904EF62051CEF200012B
:10466000086840F47F000860086840F07F400860F8
:104670004EF61C51CEF20001002000900860FFF7BA
:1046800043FC009840F20C01C2F200010860FEF702
:1046900071FFFFF74BFFFFF721F9009802B080BDD3
:1046A00080B582B04FF0800080F31188BFF36F8F28
:1046B000BFF34F8F009000F033FC40B1FFE74EF6A0
:1046C0000451CEF200014FF08050086000E0FFE797
:1046D00000200190019880F3118802B080BD000095
:1046E00080B584B08DF80F00012001900021009169
:1046F0009DF80F2000F022F802900298FEF768FD66
:10470000029804B080BD000080B586B08DF8170017
:10471000049101200290002201929DF81710049B41
:10472000EC46CCF80010114600F04CF803900398CA
:10473000FEF74EFD039806B080BD000080B588B03E
:10474000079006918DF81720002004900798A0B3D9
:10475000FFE707994FF0FF30B0FBF1F00699884270
:104760002BD3FFE707980699484310F1510F24D83F
:10477000FFE7079806994843039003985030FFF7E6
:1047800029F904900498B0B1FFE7049802900298C8
:10479000503002900499002081F84600079806994D
:1047A000029A9DF81730DDF810C0EE46CEF800C032
:1047B000FEF724FD00E0FFE700E0FFE7049808B003
:1047C00080BD000080B588B084460A98CDF81CC032
:1047D0000691059204938DF80F000020029007982F
:1047E00010B3FFE70498F8B1FFE7059818B1FFE7A9
:1047F0000698C8B1FFE7059818B9FFE7069898B979
:10480000FFE7049802900299012081F8460007987A
:104810000699059A9DF80F30DDF808C0EE46CEF8EF
:1048200000C0FEF7EBFC00E0FFE7029808B080BD97
:1048300080B584B00390029101200190039800900C
:104840000098002856D0FFE70098C06B002851D090
:10485000FFE70098C26B016C4FF0FF30B0FBF2F045
:10486000884247D3FFE7FFF7E7FA00990B68C86B68
:104870000A6C00FB02308860009900208863009970
:104880000868486000990B68C86B0A6C013800FB27
:104890000230C8600099FF2081F84400009981F837
:1048A00045000298D0B9FFE700980069A0B1FFE782
:1048B0000098103000F08CFD60B1FFE74EF6045117
:1048C000CEF200014FF080500860BFF34F8FBFF36E
:1048D0006F8F00E0FFE700E0FFE708E0009810308E
:1048E000FFF754FA00982430FFF750FAFFE7FFF77C
:1048F000BBFA02E000200190FFE7019804B080BD00
:1049000080B58AB008900791069205930020049024
:1049100008980090FFE7FFF78FFA0098806B0099E6
:10492000C96B884204D3FFE70598022834D1FFE71A
:1049300000980799059AFEF739FA03900098406AA3
:10494000A0B1FFE70098243000F042FD60B1FFE71E
:104950004EF60451CEF200014FF080500860BFF3D4
:104960004F8FBFF36F8F00E0FFE710E0039860B157
:10497000FFE74EF60451CEF200014FF08050086080
:10498000BFF34F8FBFF36F8F00E0FFE7FFE7FFF745
:104990006BFA0120099065E0069828B9FFE7FFF758
:1049A00063FA002009905DE0049830B9FFE701A8A0
:1049B000FFF762FB0120049000E0FFE7FFE7FFE75D
:1049C000FFF752FAFFF7AAFDFFF736FA009890F9C1
:1049D0004400013028B9FFE70099002081F8440025
:1049E000FFE7009890F94500013028B9FFE70099EA
:1049F000002081F84500FFE7FFF736FA01A806A975
:104A000000F0AEF928BBFFE70098FEF79BFDC8B1A8
:104A1000FFE7009810300699FFF76AFB0098FEF751
:104A200081FF00F09FFD60B9FFE74EF60451CEF222
:104A300000014FF080500860BFF34F8FBFF36F8FBE
:104A4000FFE705E00098FEF76DFF00F08BFDFFE744
:104A500007E00098FEF766FF00F084FD0020099053
:104A600000E058E709980AB080BD000080B58AB020
:104A70000890079106920020059008980290FFE7A1
:104A8000FFF7DAF90298806B0190019830B3FFE7E5
:104A900002980799FEF768F901980138029988632E
:104AA00002980069A0B1FFE70298103000F090FC76
:104AB00060B1FFE74EF60451CEF200014FF0805096
:104AC0000860BFF34F8FBFF36F8F00E0FFE700E098
:104AD000FFE7FFF7C9F9012009906DE0069828B9B2
:104AE000FFE7FFF7C1F90020099065E0059830B9AC
:104AF000FFE703A8FFF7C0FA0120059000E0FFE7F9
:104B0000FFE7FFE7FFF7B0F9FFF708FDFFF794F9BC
:104B1000029890F94400013028B9FFE7029900207B
:104B200081F84400FFE7029890F94500013028B968
:104B3000FFE70299002081F84500FFE7FFF794F9AD
:104B400003A806A900F00CF930BBFFE70298FEF7B6
:104B5000E5FCD0B1FFE7029824300699FFF7C8FAC8
:104B60000298FEF7DFFE00F0FDFC60B9FFE74EF6AD
:104B70000451CEF200014FF080500860BFF34F8F18
:104B8000BFF36F8F00E0FFE705E00298FEF7CAFE73
:104B900000F0E8FCFFE70EE00298FEF7C3FE00F02D
:104BA000E1FC0298FEF7BAFC18B1FFE7002009907B
:104BB00002E0FFE7FFE763E709980AB080BD000065
:104BC00080B58AB00890079100200690089903915B
:104BD0000290FFE7FFF730F90398806B019001988E
:104BE00060B3FFE701980138039988630398006870
:104BF00028B9FFE7FEF7CAFF0399886000E0FFE7E6
:104C000003980069A0B1FFE70398103000F0E0FBC3
:104C100060B1FFE74EF60451CEF200014FF0805034
:104C20000860BFF34F8FBFF36F8F00E0FFE700E036
:104C3000FFE7FFF719F9012009908DE0079828B9DF
:104C4000FFE7FFF711F90020099085E0069830B9D9
:104C5000FFE704A8FFF710FA0120069000E0FFE745
:104C6000FFE7FFE7FFF700F9FFF758FCFFF7E4F86D
:104C7000039890F94400013028B9FFE70399002018
:104C800081F84400FFE7039890F94500013028B906
:104C9000FFE70399002081F84500FFE7FFF7E4F8FC
:104CA00004A807A900F05CF8A8BBFFE70398FEF78B
:104CB00035FC48B3FFE70398006850B9FFE7FFF7FA
:104CC000BBF80398806800F0D5FA0290FFF7CCF8A3
:104CD00000E0FFE7039824300799FFF709FA0398EB
:104CE000FEF720FE00F03EFC60B9FFE74EF60451EF
:104CF000CEF200014FF080500860BFF34F8FBFF33A
:104D00006F8F00E0FFE705E00398FEF70BFE00F071
:104D100029FCFFE71FE00398FEF704FE00F022FCE9
:104D20000398FEF7FBFBA0B1FFE7029870B1FFE725
:104D3000FFF782F80398FEF7A5F9009003988068C2
:104D40000099FFF71BFAFFF78FF8FFE700200990A3
:104D500002E0FFE7FFE73DE709980AB080BD0000E9
:104D600080B586B005900491FFF766F842F60840DA
:104D7000C2F2000000680290029805994968401A42
:104D8000019040F2CC20C2F20000006890F85A0076
:104D900058B1FFE740F2CC20C2F2000001680020C9
:104DA00081F85A000120039037E004980068013030
:104DB00018B9FFE7002003902EE042F6B030C2F2AF
:104DC000000000680599096888420CD0FFE7029846
:104DD00005994968884206D3FFE7012003900499AA
:104DE0000020086017E001980499096888420BD2F6
:104DF000FFE7019A04990868801A08600598FFF790
:104E00003BF90020039005E0049900200860012090
:104E10000390FFE7FFE7FFE7FFE7FFF725F80398B9
:104E200006B080BD10B588B0DDF82CC0DDF828C014
:104E3000079006910592049307980699059A049B9A
:104E4000DDF828C00B9CEE46CEF80440CEF800C03A
:104E5000FEF7B2F80390039830B1FFE70398FDF72F
:104E60005DFE0120029003E04FF0FF300290FFE76B
:104E7000029808B010BD000070B58AB0DDF840C0DF
:104E8000DDF83CC0DDF838C0099008910792069320
:104E90000020059009980899079A069BDDF838C00C
:104EA0000F9C109DEE4605AECEF80C60CEF8085073
:104EB000CEF80440CEF800C0FEF742F80490049803
:104EC00020B1FFE70498FDF729FE00E0FFE7059811
:104ED0000AB070BD81B042F6D430C2F20000006862
:104EE00018B9FFE7012000900DE042F24C70C2F2C9
:104EF0000000006818B9FFE70220009002E00020DF
:104F00000090FFE7FFE7009801B0704781B042F6DC
:104F10000840C2F2000000680090009801B070479D
:104F200080B588B00020059042F24C70C2F20000BB
:104F30000068002840F01881FFE742F60841C2F2FD
:104F40000001086801300490049808600498D0B902
:104F5000FFE7FFE740F2D422C2F20002106803909C
:104F600040F2DC21C2F2000108681060039808607A
:104F700042F6B031C2F20001086801300860FEF765
:104F800043FCFFE700E0FFE7049842F6AC31C2F2D1
:104F9000000109688842C0F0C680FFE7FFE740F2E1
:104FA000D420C2F200000068006840B9FFE742F672
:104FB000AC31C2F200014FF0FF300860B2E040F2C5
:104FC000D420C2F200000068C068C068079007984B
:104FD0004068069004980699884207D2FFE7069831
:104FE00042F6AC31C2F2000108609BE0FFE7FFE748
:104FF00007984069029007988168C068886007999F
:105000008868C968486002984068079904318842F6
:1050100005D1FFE70798C06802994860FFE7079944
:10502000002048610299086801380860FFE7079886
:10503000806A08B3FFE7FFE70798806A0190079846
:10504000C169006A88600799C869096A486001985F
:10505000406807991831884205D1FFE70798006A30
:1050600001994860FFE70799002088620199086864
:1050700001380860FFE700E0FFE7FFE7FFE7079878
:10508000C06A42F25471C2F200010968884208D92C
:10509000FFE70798C06A42F25471C2F2000108604B
:1050A000FFE7FFE7FFE70798C06A00EB800040F2E8
:1050B000E421C2F2000101EB8000406800900098FA
:1050C000079A906000988068079AD060079804302B
:1050D000009A9268506007980430009A9060079A8E
:1050E000D06A00EB800001EB800050610798C06A35
:1050F00000EB800251F82200013041F82200FFE766
:10510000FFE70798C06A40F2CC21C2F200010968AB
:10511000C96A884203D9FFE70120059000E0FFE754
:10512000FFE73CE7FFE740F2CC20C2F20000006856
:10513000C06A00EB800140F2E420C2F2000050F8A7
:105140002100022803D3FFE70120059000E0FFE7DC
:1051500042F61440C2F20000006818B1FFE70120D7
:10516000059000E0FFE707E042F6BC31C2F2000123
:10517000086801300860FFE7059808B080BD0000AE
:1051800080B584B0039003980290002001900398AA
:1051900000286AD0FFE70299086D01380865029976
:1051A000C86AC96C88425ED0FFE70298006D00288B
:1051B00057D1FFE702980430FEF792FD08B9FFE7E8
:1051C00000E0FFE70299C86CC8620299C86AC0F1A2
:1051D00038008861FFE7FFE70298C06A42F2547125
:1051E000C2F200010968884208D9FFE70298C06A44
:1051F00042F25471C2F200010860FFE7FFE7FFE7E7
:105200000298C06A00EB800040F2E421C2F2000183
:1052100001EB8000406800900098029A906000982E
:105220008068029AD06002980430009A92685060B8
:1052300002980430009A9060029AD06A00EB8000D5
:1052400001EB800050610298C06A00EB800251F8C7
:105250002200013041F82200FFE7FFE70120019022
:1052600000E0FFE700E0FFE700E0FFE7019804B09F
:1052700080BD000080B584B00390039802900020A8
:1052800001900398002800F09F80FFE70298C06A11
:1052900040F2CC21C2F200010968C96A884280F05C
:1052A0008280FFE70298C07E000600280BD4FFE74B
:1052B00040F2CC20C2F200000068C06AC0F13800A1
:1052C0000299886100E0FFE702994869C96A01EB29
:1052D000810240F2E421C2F2000101EB8201884226
:1052E00055D1FFE702980430FEF7FAFC08B9FFE752
:1052F00000E0FFE740F2CC20C2F200000068C06A84
:105300000299C862FFE7FFE70298C06A42F254714F
:10531000C2F200010968884208D9FFE70298C06A12
:1053200042F25471C2F200010860FFE7FFE7FFE7B5
:105330000298C06A00EB800040F2E421C2F2000152
:1053400001EB8000406800900098029A90600098FD
:105350008068029AD06002980430009A9268506087
:1053600002980430009A9060029AD06A00EB8000A4
:1053700001EB800050610298C06A00EB800251F896
:105380002200013041F82200FFE7FFE708E040F289
:10539000CC20C2F200000068C06A0299C862FFE730
:1053A000012001900FE00298C06C40F2CC21C2F2C3
:1053B00000010968C96A884203D2FFE70120019011
:1053C00000E0FFE7FFE700E0FFE7019804B080BDE1
:1053D00087B006900698C068C0680590FFE70598FA
:1053E000806A03900598C169006A88600599C86958
:1053F000096A48600398406805991831884205D1C8
:10540000FFE70598006A03994860FFE705990020C7
:1054100088620399086801380860FFE742F24C701F
:10542000C2F200000068002865D1FFE7FFE7059899
:105430004069029005988168C0688860059988680D
:10544000C96848600298406805990431884205D1CE
:10545000FFE70598C06802994860FFE705990020BA
:1054600048610299086801380860FFE7FFE7FFE735
:105470000598C06A42F25471C2F20001096888427C
:1054800008D9FFE70598C06A42F25471C2F20001E0
:105490000860FFE7FFE7FFE70598C06A00EB8000C0
:1054A00040F2E421C2F2000101EB8000406801906B
:1054B0000198059A906001988068059AD0600598D7
:1054C0000430019A9268506005980430019A906007
:1054D000059AD06A00EB800001EB800050610598CE
:1054E000C06A00EB800251F82200013041F822002E
:1054F000FFE7FFE71DE0FFE742F6C031C2F200011F
:10550000486800900098059AD06100988068059AD4
:10551000106205981830009A92685060059818300B
:10552000009A906005988162086801300860FFE782
:10553000FFE70598C06A40F2CC21C2F20001096879
:10554000C96A884208D9FFE70120049042F6144155
:10555000C2F20001086002E000200490FFE7049816
:1055600007B0704780B588B0002000900790069083
:10557000FEF762FC0098059042F24C70C2F2000007
:105580000168013901600068002840F00481FFE7EC
:1055900042F24470C2F200000068002800F0FA8075
:1055A000FFE7FFE742F6C030C2F2000000680028C3
:1055B00000F0A280FFE742F6C030C2F20000C068EF
:1055C000C0680790FFE70798806A04900798C16950
:1055D000006A88600799C869096A48600498406849
:1055E00007991831884205D1FFE70798006A0499A6
:1055F0004860FFE70799002088620499086801382D
:105600000860FFE7FFE70798406903900798816803
:10561000C068886007998868C968486003984068CE
:1056200007990431884205D1FFE70798C0680399BC
:105630004860FFE70799002048610399086801382E
:105640000860FFE7FFE7FFE70798C06A42F254717E
:10565000C2F200010968884208D9FFE70798C06ACA
:1056600042F25471C2F200010860FFE7FFE7FFE772
:105670000798C06A00EB800040F2E421C2F200010A
:1056800001EB8000406802900298079A90600298AF
:105690008068079AD06007980430029A9268506038
:1056A00007980430029A9060079AD06A00EB800055
:1056B00001EB800050610798C06A00EB800251F84E
:1056C0002200013041F82200FFE7FFE70798C06A97
:1056D00040F2CC21C2F200010968C96A884209D9A6
:1056E000FFE7059A42F61441C2F20001012041F899
:1056F000220000E0FFE755E7079818B1FFE7FEF743
:1057000083F8FFE742F6BC30C2F200000068019067
:105710000198F0B1FFE7FFE7FFF702FC48B1FFE7B0
:10572000059A42F61441C2F20001012041F822001C
:1057300000E0FFE7019801380190FFE70198002899
:10574000EAD1FFE742F6BC31C2F200010020086056
:1057500000E0FFE7059942F61440C2F2000050F85D
:105760002100A8B1FFE701200690FFE740F2CC201E
:10577000C2F2000000684EF60451CEF200014FF074
:1057800080500860BFF34F8FBFF36F8FFFE700E0DB
:10579000FFE7FFE700E0FFE7FEF766FB069808B0CB
:1057A00080BD000080B588B000200790FDF76EFA3C
:1057B00042F60C40C2F20000006858B3FFE7002038
:1057C00003900690059006A805A904AAFEF7C2FA60
:1057D000039B049A0598DDF818C06946C1F808C013
:1057E00048602820086043F60510C0F6000046F621
:1057F000BF01C0F60001FFF73FFB014642F6104033
:10580000C2F200000160006818B1FFE701200790B4
:10581000FFE700E0FFE7079808B080BD5FEA400CB3
:1058200008BF91F0000F4FEA8C234FEAC12243EAF0
:1058300051514FEA1C5018BF00F5F0404FEA3000BC
:1058400018BF41F000415FEA6C5C00F02980BCF1B8
:10585000FF3F08BF40F080407047130C06BF1204A2
:105860004FF0100C4FF0000C130E04BF12020CF19D
:10587000080C130F04BF12010CF1040C930F04BFAA
:1058800092000CF1020CD30F04BF52000CF1010C7A
:1058900011464FF00002A0F11F00A0EB0C00704772
:1058A00011F0004F08BF704731F000413FF4D5AF11
:1058B0000B0C06BF09044FF0100C4FF0000C0B0E40
:1058C00004BF09020CF1080C0B0F04BF09010CF115
:1058D000040C8B0F04BF89000CF1020CCB0F04BF2A
:1058E00049000CF1010CCCF1200322FA03F341EA48
:1058F000030102FA0CF2A0EB0C0000F1010070476A
:1059000023F07F4720F07F4C80EA030000F0004046
:10591000ACEB070303F57C5303F1FF032DE980494A
:1059200009B44FEA144324EA03484FEA154B25EA29
:105930000B4E0FF2042606EB13273E7803FB066797
:10594000C7F5000707FB06F64FEAD64606F1020642
:105950004FEA543707FB066CCCF1005C4FEA1C475A
:105960002CEA074C0CFB06F507FB06F404EB154686
:105970004FEA961649085FEA320234BF00204FF022
:1059800000404FEAD13706FB07FC4FEA1C4C0CFBEA
:105990000BF7D21B03FB0CF761EB07010CFB0EF7B7
:1059A000B0EB074072EB17420CFB08F734BFA2EBD9
:1059B0000742B2EB074261EB17414FEA0C444FEA52
:1059C000910706FB07FC4FEA1C4C0CFB0BF7B0EBF6
:1059D000C74072EB573203FB0CF734BFA2EBC74250
:1059E000B2EBC74261EB57310CFB0EF7B0EBC700CF
:1059F00072EB57720CFB08F734BFA2EBC702B2EB95
:105A0000C70261EB57714FEA816141EA92114FEA97
:105A1000826242EA90124FEA806004EBCC04039F5A
:105A20004FEAD13706FB07FC4FEA1C4C0CFB0BF787
:105A3000D21B03FB0CF761EB07010CFB0EF7B0EB7D
:105A4000074072EB17420CFB08F734BFA2EB07428A
:105A5000B2EB074261EB17414FEA8C5504EB9C24F3
:105A60004FEA910706FB07FC4FEA1C4C0CFB0BF7B7
:105A7000B0EBC74072EB573203FB0CF734BFA2EB1D
:105A8000C742B2EBC74261EB57310CFB0EF7B0EBEC
:105A9000C70072EB57720CFB08F734BFA2EBC702CA
:105AA000B2EBC70261EB57714FEA816141EA921193
:105AB0004FEA826242EA90124FEA806015EB4C2571
:105AC00044F100044FEAD13706FB07FC4FEA1C4CB7
:105AD0000CFB0BF7D21B03FB0CF761EB07010CFB74
