:020000040800F2
:1000000070060020B5010008BD010008BF0100080E
:10001000C1010008C3010008C5010008000000007C
:10002000000000000000000000000000C701000800
:10003000C901000800000000CB010008CD01000844
:10004000CF010008CF010008CF010008CF01000850
:10005000CF010008CF010008CF010008CF01000840
:10006000CF010008CF010008CF010008CF01000830
:10007000CF010008CF010008CF010008CF01000820
:10008000CF010008CF010008CF010008CF01000810
:10009000CF010008CF010008CF010008CF01000800
:1000A000CF010008CF010008CF010008CF010008F0
:1000B000FD060008CF010008CF010008CF010008AD
:1000C000CF010008CF010008CF010008CF010008D0
:1000D000CF010008CF010008CF010008CF010008C0
:1000E000CF010008CF010008CF01000800F002F89E
:1000F00000F050F814A696E8000CB244B344DA4578
:1001000001D100F047F8BAE80F000FA696E83000DA
:10011000A5EB040504EB0607AAEB0704A7F101070A
:100120004FEA15154FEA3414A4F10104AC4201D38F
:1001300000F030F813F0010F18BFFB1A43F0010371
:1001400000F001F8DBE71847080900002809000063
:10015000103A24BF78C878C1FAD8520724BF30C8F3
:1001600030C144BF04680C60704700007047000055
:100170000023002400250026103A28BF78C1FBD8B0
:10018000520728BF30C148BF0B6070471FB51FBD65
:1001900010B510BD00F031F81146FFF7F7FF00F081
:1001A0004DFC00F04FF803B4FFF7F2FF03BC00F082
:1001B00057F800000948804709480047FEE7FEE776
:1001C000FEE7FEE7FEE7FEE7FEE7FEE7FEE7FEE707
:1001D00004480549054A064B70470000950600088B
:1001E000ED00000870000020700600207002002062
:1001F00070020020704770477047754600F02CF879
:10020000AE4605006946534620F00700854618B003
:1002100020B5FFF7DDFFBDE820404FF000064FF0AE
:1002200000074FF000084FF0000BAC46ACE8C009E7
:10023000ACE8C009ACE8C009ACE8C00921F007018E
:100240008D46704710B50446AFF300802046BDE8E8
:100250001040FFF7A8BF00000048704708000020CA
:1002600001491820ABBEFEE72600020070470000DF
:1002700080B582B004200121009100F059F9009866
:10028000ADF8040010208DF8070003208DF806005B
:1002900040F60000C4F2010001A900F003F802B02A
:1002A00080BD000088B00790069100200590049062
:1002B00003900290019000900698C07800F00F0023
:1002C00005900698C078C006002806D5FFE7069876
:1002D0008178059808430590FFE706980078002884
:1002E0004BD0FFE707980068019000200390FFE7DC
:1002F000039807283DD8FFE7039901208840029022
:10030000069800880299084004900498029988424F
:100310002AD1FFE703988000029002990F208840BD
:10032000009000990198884301900598029900FA7D
:1003300001F10198084301900698C078282806D159
:10034000FFE7039901208840079948610BE0069870
:10035000C078482806D1FFE7039901208840079913
:100360000861FFE7FFE7FFE7FFE70398013003902D
:10037000BEE7019807990860FFE706980088B0F586
:10038000807F50DBFFE707984068019000200390D2
:10039000FFE70398072842D8FFE7039800F1080118
:1003A0000120884002900698008802990840049035
:1003B0000498029988422DD1FFE7039880000290AB
:1003C00002990F208840009000990198884301907D
:1003D0000598029900FA01F10198084301900698E6
:1003E000C078282808D1FFE7039800F10801012010
:1003F000884007994861FFE70698C078482808D1E7
:10040000FFE7039800F1080101208840079908617F
:10041000FFE7FFE7FFE7039801300390B9E7019892
:1004200007994860FFE708B07047000082B001906C
:10043000ADF80210BDF802000199486102B07047A2
:1004400082B00190ADF80210BDF802000199086178
:1004500002B0704780B584B00390002002900190F4
:100460000F2000900398C078A8B3FFE74EF60C5019
:10047000CEF200000068C043C0F302200290029850
:10048000C0F10400019000980299C84000900398C0
:100490004078019988400290039880780099014043
:1004A000029808430290029800010290039890F984
:1004B0000000029900F0A0FA0398027802F01F01F0
:1004C000012088401C2101EAD2014EF20012CEF236
:1004D000000288500EE00398027802F01F0101200C
:1004E00088401C2101EAD2014EF28012CEF20002B5
:1004F0008850FFE704B080BD82B001908DF80310F2
:100500009DF8030048B1FFE7019A41F21C01C4F2D3
:10051000020108681043086008E0019A41F21C01DA
:10052000C4F20201086890430860FFE702B0704718
:1005300082B001908DF803109DF8030048B1FFE7E9
:10054000019A41F21801C4F20201086810430860E0
:1005500008E0019A41F21801C4F2020108689043D0
:100560000860FFE702B0704780B500F001F880BD79
:1005700084B000200390029041F20001C4F2020115
:10058000086840F480300860FFE741F20000C4F2E0
:100590000200006800F400300290039801300390DC
:1005A000FFE702990020019039B9FFE70398B0F501
:1005B000A06018BF01200190FFE70198C007002844
:1005C000E3D1FFE741F20000C4F2020000688003BB
:1005D000002803D5FFE70120029002E000200290EE
:1005E000FFE70298012851D1FFE742F20001C4F26F
:1005F0000201086840F010000860086820F0070059
:100600000860086840F00200086041F20401C4F28A
:10061000020100910868086008680860086840F4F2
:1006200080600860086820F47C100860086840F466
:10063000E810086041F20001C4F20201086840F0CD
:1006400080700860FFE741F20000C4F20200006819
:100650008001002801D4FFE7F5E741F20401C4F26C
:100660000201086820F003000860086840F00200FA
:100670000860FFE741F20400C4F20200006800F0E5
:100680000C00082801D0FFE7F4E700E0FFE704B022
:100690007047000080B541F20002C4F20202106807
:1006A00040F00100106041F20401C4F20201086848
:1006B0000023CFF6FF031840086010684FF6FF7361
:1006C000CFF6F66318401060106820F480201060A8
:1006D000086820F4FE00086041F20801C4F202013B
:1006E0004FF41F000860FFF73FFF4EF60851CEF2AF
:1006F00000014FF00060086080BD000080B54FF041
:100700008040012100F04CF830B3FFE74FF080400B
:10071000012100F023F840F26800C2F200000078E6
:1007200040B1FFE740F60000C4F201000121FFF7ED
:100730007DFE07E040F60000C4F201000121FFF752
:100740007FFEFFE740F26801C2F200010878B0FACC
:1007500080F040090870FFE780BD000082B0019082
:10076000ADF80210BDF80200C0430199088202B042
:100770007047000082B001908DF803109DF80300CF
:1007800030B1FFE70199088840F00100088005E0DA
:100790000199088820F001000880FFE702B0704747
:1007A00083B00290ADF8061000208DF80500ADF87A
:1007B0000200ADF800000298008ABDF8061008405B
:1007C000ADF8020002988089BDF806100840ADF827
:1007D0000000BDF8020040B1FFE7BDF8000020B105
:1007E000FFE701208DF8050003E000208DF80500EB
:1007F000FFE79DF8050003B07047000082B001904C
:10080000ADF802108DF801209DF8010038B1FFE726
:10081000BDF80220019988891043888106E0BDF85F
:1008200002200199888990438881FFE702B07047D0
:1008300083B0029001910020ADF802000298008878
:10084000ADF80200029842F60041C4F2010188426C
:1008500025D0FFE7029843F20041C4F2010188422B
:100860001DD0FFE70298B0F1804F18D0FFE7029843
:1008700040F20041C4F20001884210D0FFE7029824
:1008800040F60001C4F20001884208D0FFE7029858
:1008900040F60041C4F2000188420ED1FFE7BDF8E6
:1008A000020020F07000ADF8020001984188BDF808
:1008B00002000843ADF80200FFE7029841F2000190
:1008C000C4F20001884216D0FFE7029841F20041CD
:1008D000C4F2000188420ED0FFE7BDF8020020F408
:1008E0004070ADF802000198C188BDF802000843CD
:1008F000ADF80200FFE7BDF80200029908800198F8
:100900008088029988850198008802990885029854
:1009100042F60041C4F20101884220D0FFE702986C
:1009200043F20041C4F20101884218D0FFE7029867
:1009300044F20001C4F20101884210D0FFE702989E
:1009400044F20041C4F20101884208D0FFE7029856
:1009500044F60001C4F20101884205D1FFE7019885
:10096000007A02990886FFE702990120888203B085
:100970007047000080B588B0012103910846FFF759
:10098000BBFD00200190ADF8180040F20000C2F25B
:100990000000006844F6D351C1F26201A0FB0101DE
:1009A0004FF0FF3000EBD110ADF81A0040F2CF70DD
:1009B000ADF816004FF0804002900DF11601FFF7E0
:1009C00037FF0298039A1146FFF718FF0199039821
:1009D0001C228DF812208DF813108DF814008DF85C
:1009E00015000DF11200FFF735FD02980399FFF78E
:1009F000C1FE08B080BD000082B08DF807000091F4
:100A00009DF9070000280AD4FFE7009800019DF92E
:100A100007104EF20042CEF2000288540BE000981C
:100A200000019DF8071001F00F014EF61452CEF2AE
:100A300000028854FFE702B07047000080B582B022
:100A400000200190FFF714FCFFF794FFFFE7FEE79B
:100A5000700A000800000020080000005001000893
:100A6000780A0008080000206806000070010008ED
:080A700000A24A04000000008E
:04000005080000ED02
:00000001FF
