:020000040800F2
:100000006806002099010008A1010008A30100086A
:10001000A5010008A7010008A901000800000000D0
:10002000000000000000000000000000AB0100081C
:10003000AD01000800000000AF010008B101000898
:10004000B3010008B3010008B3010008B3010008C0
:10005000B3010008B301000855020008B30100080D
:10006000B3010008B3010008B3010008B3010008A0
:10007000B3010008B3010008B3010008B301000890
:10008000B3010008B3010008B3010008B301000880
:10009000B3010008B3010008B3010008B301000870
:1000A000B3010008B3010008B3010008B301000860
:1000B000B3010008B3010008B3010008B301000850
:1000C000B3010008B3010008B3010008B301000840
:1000D000B3010008B3010008B3010008B301000830
:1000E000B3010008B3010008B301000800F002F8F2
:1000F00000F042F814A696E8000CB244B344DA4586
:1001000001D100F039F8BAE80F000FA696E83000E8
:10011000A5EB040504EB0607AAEB0704A7F101070A
:100120004FEA15154FEA3414A4F10104AC4201D38F
:1001300000F022F813F0010F18BFFB1A43F001037F
:1001400000F001F8DBE71847280800003808000035
:10015000704700000023002400250026103A28BF25
:1001600078C1FBD8520728BF30C148BF0B60704729
:100170001FB51FBD10B510BD00F031F81146FFF7D7
:10018000F7FF00F0E9FB00F04FF803B4FFF7F2FFD0
:1001900003BC00F057F800000948804709480047B1
:1001A000FEE7FEE7FEE7FEE7FEE7FEE7FEE7FEE727
:1001B000FEE7FEE704480549054A064B7047000084
:1001C000AD080008ED000008680000206806002067
:1001D000680200206802002070477047704775462B
:1001E00000F02CF8AE4605006946534620F00700A3
:1001F000854618B020B5FFF7DDFFBDE820404FF081
:1002000000064FF000074FF000084FF0000BAC461F
:10021000ACE8C009ACE8C009ACE8C009ACE8C0096A
:1002200021F007018D46704710B50446AFF30080FA
:100230002046BDE81040FFF7A8BF00000048704707
:100240000000002001491820ABBEFEE72600020096
:100250007047000080B5012000F04CF810B3FFE7B4
:1002600040F26000C2F200000178B1FA81F1490960
:100270000170007848B1FFE741F20000C4F20100CC
:100280004FF4005100F0F2F908E041F20000C4F22E
:1002900001004FF4005100F0DFF9FFE7012000F00A
:1002A00003F8FFE780BD000081B00090009840F2A5
:1002B0001441C4F20101086001B0704780B584B0F8
:1002C00001210191084600F03FFA00210091084603
:1002D00000F0D4F80099019802908DF80C100C21D0
:1002E0008DF80D108DF80E0002A800F029F804B06A
:1002F00080BD000083B0029000208DF807000090C0
:1003000040F20040C4F201000068029908400090E9
:1003100040F21440C4F2010000680299084207D07C
:10032000FFE7009820B1FFE701208DF8070003E008
:1003300000208DF80700FFE79DF8070003B0704725
:1003400082B001900020009040F20040C4F2010011
:10035000009001988079002859D0FFE70198026841
:1003600040F20041C4F2010108689043086001981E
:10037000026840F20441C4F2010108689043086039
:10038000019801790098084400900198026800994A
:100390000868104308600198026840F20841C4F2FE
:1003A00001010868904308600198026840F20C411E
:1003B000C4F2010108689043086001984079102850
:1003C00013D1FFE70198026840F20841C4F201012D
:1003D0000868104308600198026840F20C41C4F2BA
:1003E000010108681043086010E040F20040C4F2C8
:1003F000010000900198417900980844009001980C
:1004000002680099086810430860FFE70BE0019854
:1004100001790098084400900198026800990868E2
:1004200090430860FFE702B07047000080B584B0D9
:1004300014200121019100F087F94FF40050ADF82C
:100440000C0010208DF80F0003208DF80E0041F2F3
:100450000000C4F2010003A9029100F039F80198EC
:100460000299ADF80C0048208DF80F0040F600000E
:10047000C4F2010000F02CF804B080BD82B08DF809
:1004800007008DF80610002000909DF8060000F08F
:10049000030081000F2088400090009B9DF806001B
:1004A00000F0FC010822C4F20102885898438850E9
:1004B0009DF807109DF8060000F003039B0001FA69
:1004C00003F300F0FC0188581843885002B07047CD
:1004D00088B0079006910020059004900390029048
:1004E000019000900698C07800F00F0005900698E3
:1004F000C078C006002806D5FFE7069881780598E1
:1005000008430590FFE70698007800284BD0FFE7E6
:1005100007980068019000200390FFE703980728E0
:100520003DD8FFE703990120884002900698008893
:100530000299084004900498029988422AD1FFE762
:1005400003988000029002990F2088400090009943
:100550000198884301900598029900FA01F10198E9
:10056000084301900698C078282806D1FFE7039930
:1005700001208840079948610BE00698C078482818
:1005800006D1FFE703990120884007990861FFE73A
:10059000FFE7FFE7FFE7039801300390BEE701980C
:1005A00007990860FFE706980088B0F5807F50DB68
:1005B000FFE707984068019000200390FFE7039849
:1005C000072842D8FFE7039800F10801012088407E
:1005D00002900698008802990840049004980299B5
:1005E00088422DD1FFE703988000029002990F20E6
:1005F00088400090009901988843019005980299DD
:1006000000FA01F10198084301900698C078282863
:1006100008D1FFE7039800F10801012088400799FD
:100620004861FFE70698C078482808D1FFE703989B
:1006300000F108010120884007990861FFE7FFE702
:10064000FFE7039801300390B9E7019807994860E4
:10065000FFE708B07047000082B00190ADF80210CB
:10066000BDF802000199486102B0704782B0019064
:10067000ADF80210BDF802000199086102B07047A0
:1006800080B582B006208DF8040000208DF80500AA
:100690008DF8060001208DF8070001A800F002F88F
:1006A00002B080BD80B584B003900020029001901C
:1006B0000F2000900398C078A8B3FFE74EF60C50C7
:1006C000CEF200000068C043C0F3022002900298FE
:1006D000C0F10400019000980299C840009003986E
:1006E00040780199884002900398807800990140F1
:1006F000029808430290029800010290039890F932
:100700000000029900F006F90398027802F01F0138
:10071000012088401C2101EAD2014EF20012CEF2E3
:10072000000288500EE00398027802F01F010120B9
:1007300088401C2101EAD2014EF28012CEF2000262
:100740008850FFE704B080BD82B001908DF803109F
:100750009DF8030048B1FFE7019A41F21801C4F285
:10076000020108681043086008E0019A41F218018C
:10077000C4F20201086890430860FFE702B07047C6
:1007800080B500F001F880BD84B000200390029095
:1007900041F20001C4F20201086840F480300860B0
:1007A000FFE741F20000C4F20200006800F40030EC
:1007B0000290039801300390FFE702990020019016
:1007C00039B9FFE70398B0F5A06018BF0120019088
:1007D000FFE70198C0070028E3D1FFE741F20000DE
:1007E000C4F2020000688003002803D5FFE701205F
:1007F000029002E000200290FFE70298012851D108
:10080000FFE742F20001C4F20201086840F0100064
:100810000860086820F007000860086840F00200DF
:10082000086041F20401C4F2020100910868086006
:1008300008680860086840F480600860086820F470
:100840007C100860086840F4E810086041F200017C
:10085000C4F20201086840F080700860FFE741F2CE
:100860000000C4F2020000688001002801D4FFE704
:10087000F5E741F20401C4F20201086820F0030028
:100880000860086840F002000860FFE741F20400D9
:10089000C4F20200006800F00C00082801D0FFE755
:1008A000F4E700E0FFE704B07047000080B541F2D4
:1008B0000002C4F20202106840F00100106041F230
:1008C0000401C4F2020108680023CFF6FF031840B8
:1008D000086010684FF6FF73CFF6F663184010609B
:1008E000106820F480201060086820F4FE00086082
:1008F00041F20801C4F202014FF41F000860FFF743
:100900003FFF4EF60851CEF200014FF00060086044
:1009100080BD000082B08DF8070000919DF90700AE
:1009200000280AD4FFE7009800019DF907104EF255
:100930000042CEF2000288540BE0009800019DF8BE
:10094000071001F00F014EF61452CEF20002885447
:10095000FFE702B07047000080B582B00020019030
:10096000FFF764FDFFF78CFEFFF7A8FCFFE7FEE74B
:1009700080090008000000206806000054010008FB
:04000005080000ED02
:00000001FF
